:100000000A128A11EE2F00308A000408840A82073F
:10001000003441344334433445345334533420346E
:100020004734523441344E3454344534443400342B
:1000300045344E34543445345234203450344934E9
:100040004E343A340034573452344F344E344734FB
:100050002034503449344E3400344C344F3443341B
:0A0060004B3445344434213400349D
:100ADC008312031308150330F000F00B732D8312EF
:100AEC00031308115330F000F00B7A2D0800F200BC
:100AFC00F0307205F1008312031308080F397104EA
:100B0C0088000A128A116E250A128A1108003134E3
:100B1C00323433343434353436343734383439347D
:100B2C002A343034233431343234333434347E0880
:100B3C008A007F0882000A128A119D250A128A11E6
:100B4C008000840A04087D0603190034FF0A031987
:100B5C00FE0AA12DBF2D750884000A128A110320EC
:100B6C000A128A110A128A11CC250A128A11013032
:100B7C00F507750884000A128A1103200A128A11DB
:100B8C00003A031DCA2DCB2DB12D0800F4008312A1
:100B9C000313081488107408F0390A128A117D2581
:100BAC000A128A117408F30003300310F30DFF3E90
:100BBC00031DDB2D0310730DF0390A128A117D25EC
:100BCC000A128A110800F50083120313081088100A
:100BDC007508F0390A128A117D250A128A117508D6
:100BEC00F30003300310F30DFF3E031DF82D03102B
:100BFC00730DF0390A128A117D250A128A110D30F3
:100C0C00F400FB30F300F30B092EF40B092E0E2E1F
:100C1C0008008230F700DD30F600F60B132EF70BD0
:100C2C00132E182E30300A128A117D250A128A11C1
:100C3C002130F7007630F600F60B222EF70B222E21
:100C4C00000030300A128A117D250A128A11C73031
:100C5C00F600302EF60B2F2E332E342E30300A1297
:100C6C008A117D250A128A11C730F6003D2EF60B2B
:100C7C003C2E402E412E20300A128A117D250A125C
:100C8C008A1128300A128A11E9250A128A110C30AD
:100C9C000A128A11E9250A128A1106300A128A11DF
:100CAC00E9250A128A1101300A128A11E9250A1261
:100CBC008A110800393084002030F0000C30F1002B
:100CCC0083130008F200040AF30070088400720811
:100CDC008000040AF00073088400F10B662E831266
:100CEC000313AC01AD01831203130614861406150D
:100CFC002C082D04031D832E842E852E06102C0308
:100D0C002D04031D8A2E8B2E8C2E861002302C0661
:100D1C002D04031D922E932E942E06114130F100BA
:100D2C00EE30F000F00B982EF10B982E0000831291
:100D3C000313061AA22EA32EAD2E061EA62EA72E28
:100D4C00A32E2C08203E840083130008EE2E861A56
:100D5C00B02EB12EBC2E861EB42EB52EB12E2C0864
:100D6C00033E203E840083130008EE2E061BBF2E8C
:100D7C00C02ECB2E061FC32EC42EC02E2C08063E12
:100D8C00203E840083130008EE2E861BCE2ECF2E21
:100D9C00DA2E861FD22ED32ECF2E2C08093E203EC3
:100DAC00840083130008EE2E0130AC070318AD0A43
:100DBC000030AD072D08803AFF0080307F02031D04
:100DCC00E92E03302C02031CEC2EED2E792E003074
:100DDC000800831203134808B1004708B000460806
:100DEC00AF004508AE00B6018316031388018312C9
:100DFC0003138801F8308316031386008312031340
:100E0C000711831603138113071107309F000A1271
:100E1C008A110F260A128A1101300A128A11E92549
:100E2C000A128A111030F5000A128A11B0250A1222
:100E3C008A110630FA001330F900AD30F800F80BC7
:100E4C00252FF90B252FFA0B252F2C2FC0300A122A
:100E5C008A11E9250A128A1183120313B801532F40
:100E6C000A128A1160260A128A1183120313B70020
:100E7C0037080319422F432F532F3808323E840072
:100E8C003708831380002A300A128A11CC250A12E3
:100E9C008A11013083120313B80704303802031C83
:100EAC00582F592F362F0830FA009D30F900053095
:100EBC00F800F80B5F2FF90B5F2FFA0B5F2F662FE3
:100ECC0083120313B80138082E3E840083130008E4
:100EDC00F8003808323E8400000878060319772F92
:100EEC00782F792F812F0130B80704303802031C7A
:100EFC00802F812F692F04303806031D862F872FF2
:100F0C00AB2F01300A128A11E9250A128A1101301D
:100F1C00F5000A128A11B0250A128A1183120313E2
:100F2C0007154D30FA001930F9004F30F800F80B66
:100F3C009D2FF90B9D2FFA0B9D2FA42F83120313BA
:100F4C00071183120313B601122F01300A128A11F2
:100F5C00E9250A128A111B30F5000A128A11B025F4
:100F6C000A128A11013083120313B60703303602BA
:100F7C00031CC12FC22FDD2FC0300A128A11E925A4
:100F8C000A128A112530F5000A128A11B0250A12AC
:100F9C008A117F30FA00D430F9003130F800F80BA8
:100FAC00D52FF90BD52FFA0BD52FDC2FA72F3330DC
:100FBC00FA00BB30F900DF30F800F80BE32FF90B27
:100FCC00E32FFA0BE32FEA2F122F0A128A110028B3
:100FDC0083134930FD000530FE008D30FF003930A1
:100FEC0084000A128A11A1250A128A1183010A129D
:040FFC008A11EF2E39
:02400E007A3FF7
:00000001FF
