:100000000A128A11E72F00308A000408840A820746
:1000100000343134323433343434353436343734D4
:10002000383439342A343034233454344834453461
:1000300052344D344F3453345434413454340034F6
:10004000543445344D3450343A34003420344F3431
:100050004E34203400345334453454343A3400346C
:0A00600020344F3446344634003497
:1004EA001E340034F0007008831203178D0083163F
:1004FA0003178C130C14831203170C0808008312B9
:10050A00031308150330F000F00B892A8312031332
:10051A0008115330F000F00B902A0800F200F03076
:10052A007205F1008312031308080F397104880059
:10053A000A128A1184220A128A1108002130F20052
:10054A00F20BA52A831203131F151F19AD2AAE2A0F
:10055A00AA2A1E08F100831603131E08F0000800D9
:10056A00F100831603178C18BB2ABC2AB62A710815
:10057A00831203178D0070088C00831603178C13DF
:10058A000C158B1355308D00AA308D008C148B17E7
:10059A000C110800FD0083120313081488107D084B
:1005AA00F0390A128A1193220A128A117D08FC0074
:1005BA0003300310FC0DFF3E031DDE2A03107C0DE1
:1005CA00F0390A128A1193220A128A110800FD2AA6
:1005DA00200884000A128A1103200A128A110A12B8
:1005EA008A11CF220A128A11013083120313A0073B
:1005FA0083120313200884000A128A1103200A12A4
:10060A008A11003A031D0A2B0B2BED2A0800F4016C
:10061A00F501701C112B122B182B7208F407031802
:10062A00F50A7308F50701300310F20DF30DFF3ECA
:10063A00031D192B01300310F10CF00CFF3E031DB2
:10064A00202B70087104031D2B2B2C2B0E2B7508E5
:10065A00F1007408F0000800F50083120313081073
:10066A0088107508F0390A128A1193220A128A111F
:10067A007508F30003300310F30DFF3E031D402BF2
:10068A000310730D0A128A1193220A128A110D306D
:10069A00F400FB30F300F30B502BF40B502B552BCB
:1006AA0008007008710403195B2B5C2B892B01303D
:1006BA00F400682B01300310F00DF10DFF3E031D0D
:1006CA00602B0130F407F11F6B2B6C2B5F2B710829
:1006DA007302031D722B70087202031C752B762B92
:1006EA007C2B7008F2027108031CF303F302013039
:1006FA000310F10CF00CFF3E031D7D2B0130F402B8
:10070A00031D882B892B6C2B7308F1007208F000EB
:10071A000800F901FA01750876040319952B962B3E
:10072A00CB2B0130FB00A22B01300310F50DF60D87
:10073A00FF3E031D9A2B0130FB07F61FA52BA62BA4
:10074A00992B01300310F90DFA0DFF3E031DA72B5B
:10075A0076087802031DB32B75087702031CB62BA3
:10076A00B72BBE2B7508F7027608031CF803F802AC
:10077A00791401300310F60CF50CFF3E031DBF2B54
:10078A000130FB02031DCA2BCB2BA62B7A08F600DD
:10079A007908F50008000030FC000030FB0000304A
:1007AA00FA000030F900701CDB2BDC2BF32B7408E9
:1007BA00F907750803110318013E0319E52BFA0717
:1007CA00760803110318013E0319EC2BFB0777087F
:1007DA0003110318013E0319F32BFC070130F8003B
:1007EA000310F40DF50DF60DF70DF80BF52B01308E
:1007FA000310F30CF20CF10CF00CFF3E031DFD2B61
:10080A007308720471047004031D0C2C0D2CD82B70
:10081A007C08F3007B08F2007A08F1007908F000FE
:10082A0008008230F700DD30F600F60B1A2CF70BC1
:10083A001A2C1F2C83120313081088100811303049
:10084A000A128A1193220A128A112130F70076308D
:10085A00F600F60B2E2CF70B2E2C000030300A1265
:10086A008A1193220A128A11C730F6003C2CF60B21
:10087A003B2C3F2C402C30300A128A1193220A1248
:10088A008A11C730F600492CF60B482C4C2C4D2CFB
:10089A0020300A128A1193220A128A11C730F600EE
:1008AA00562CF60B552C592C5A2C28300A128A1120
:1008BA0031230A128A110C300A128A1131230A12C0
:1008CA008A1106300A128A1131230A128A1101305A
:1008DA000A128A1131230A128A1108006430F500BB
:1008EA000030F600831203132708F8002608F700E1
:1008FA000A128A118E230A128A11760883120313A6
:10090A00A9007508A8002908A1002808A0000A1251
:10091A008A11D1240A128A112E300A128A11CF2280
:10092A000A128A110A30F5000030F6008312031306
:10093A002708F3002608F2006430F0000030F100C6
:10094A000A128A1156230A128A117108F8007008CD
:10095A00F7000A128A118E230A128A117508303E8C
:10096A000A128A11CF220A128A110A30F0000030C4
:10097A00F100831203132708F3002608F2000A1273
:10098A008A1156230A128A117008303E0A128A11F5
:10099A00CF220A128A110800103083120313A4000E
:1009AA002730A500A2012B2D2508F6002408F50002
:1009BA002108F8002008F7000A128A118E230A1269
:1009CA008A11750883120313A3002308031DEE2C52
:1009DA00EF2CFA2C2208031DF32CF42CFA2C2403F6
:1009EA002504031DF92CFA2C052D2308303E0A1282
:1009FA008A11CF220A128A11013083120313A2002C
:100A0A002508F1002408F0002108F3002008F2006C
:100A1A000A128A1156230A128A11710883120313C1
:100A2A00A1007008A0000A30F5000030F600250881
:100A3A00F8002408F7000A128A118E230A128A1172
:100A4A00760883120313A5007508A4002408250458
:100A5A00031D302D312DD92C0800003083120313C9
:100A6A00AB000030AA000030A9000030A80023081B
:100A7A002204210420040319432D442D8F2D013013
:100A8A00AC00522D0130FD000310A00DA10DA20DE6
:100A9A00A30DFD0B492D0130AC07A31F552D562D73
:100AAA00472D0130FD000310A80DA90DAA0DAB0DAD
:100ABA00FD0B582D23082702031D6D2D220826023F
:100ACA00031D6D2D21082502031D6D2D200824020A
:100ADA00031C702D712D802D2008A4022108031CEF
:100AEA00210FA5022208031C220FA6022308031CB9
:100AFA00230FA702281401300310A30CA20CA10C87
:100B0A00A00CFF3E031D812D0130AC02031D8E2D6A
:100B1A008F2D562D2B08A3002A08A2002908A10010
:100B2A002808A0000800F201831203130614861491
:100B3A0006157208031DA22DA32DA52D0610AD2D95
:100B4A007203031DA92DAA2DAC2D8610AD2D0611F9
:100B5A000D30F100FB30F000F00BB12DF10BB12D8F
:100B6A00B62D83120313061ABB2DBC2DC92D061EE2
:100B7A00BF2DC02DBC2D7208013E84000A128A11B5
:100B8A0003200A128A11052E861ACC2DCD2DDA2DB4
:100B9A00861ED02DD12DCD2D7208043E84000A1256
:100BAA008A1103200A128A11052E061BDD2DDE2D5D
:100BBA00EB2D061FE12DE22DDE2D7208073E840083
:100BCA000A128A1103200A128A11052E861BEE2D9B
:100BDA00EF2DFC2D861FF22DF32DEF2D72080A3E04
:100BEA0084000A128A1103200A128A11052E013082
:100BFA00F20703307202031C032E042E992D0030D3
:100C0A0008008316031388010711F8308600811340
:100C1A000514831203138801870107308600BE304A
:100C2A00831603139F004130831203139F00003081
:100C3A000A128A1177220A128A1183120313B20046
:100C4A000A303202031C2A2E2B2E392E643032022D
:100C5A000318302E312E392E3208AD00AE012D0880
:100C6A00BC002E08BD003D2E1E30BC000030BD0069
:100C7A000A128A1116240A128A1180300A128A115B
:100C8A0031230A128A110D3083120313A0000A12AB
:100C9A008A11EC220A128A11C0300A128A113123EF
:100CAA000A128A11233083120313A0000A128A112E
:100CBA00EC220A128A11831203133D08A1003C0890
:100CCA00A0000A128A11D1240A128A11DF300A12EC
:100CDA008A11CF220A128A1143300A128A11CF22AC
:100CEA000A128A11273083120313AF000D30AE00A7
:100CFA002530AD00AD0B7F2EAE0B7F2EAF0B7F2EB6
:100D0A00862E01300A128A1131230A128A110A1216
:100D1A008A1198250A128A1183120313BB003C0810
:100D2A00B10030303B02031C9B2E9C2EE72E3A303A
:100D3A003B020318A12EA22EE72E3A08031DA62E67
:100D4A00A72EC32E3B08D03EB9003908AD00AE012C
:100D5A002D08F0002E08F1000A30F2000030F300EE
:100D6A000A128A110C230A128A11710883120313B8
:100D7A00BD007008BC000130BA00F22E3908AD007F
:100D8A00AE012D08F0002E08F1000A30F200003002
:100D9A00F3000A128A110C230A128A11831203130E
:100DAA003B087007AF000030031801307107B0002C
:100DBA002F08D03EBC0030080318013EFF3EBD009C
:100DCA00BA01F22E2A303B06031DEC2EED2EF22E2E
:100DDA001E30BC000030BD00E52E3108AD00AE016A
:100DEA003D082E06031DFB2E3C082D060319FE2E78
:100DFA00FF2E192F00303D020A3003193C02031C52
:100E0A00072F082F192F00303D02643003193C02C6
:100E1A000318102F112F192F3C08F00000300A1266
:100E2A008A11B5220A128A110A128A11A3220A12F7
:100E3A008A11710883120313B8007008B7000030D2
:100E4A00A3000030A2000330A100FF30A000370841
:100E5A00F0003808F100F201F3010030F700003029
:100E6A00F600C330F5005030F4000A128A11D0237C
:100E7A000A128A11730883120313A7007208A600C4
:100E8A007108A5007008A4000A128A1132250A12F4
:100E9A008A11831203132108B6002008B5006430B2
:100EAA00F5000030F6003608F8003508F7000A1297
:100EBA008A118E230A128A11760883120313B40048
:100ECA007508B3003D083402031D6D2F3C08330238
:100EDA00031C702F712F732F0715742F0711803081
:100EEA000A128A1131230A128A1118308312031343
:100EFA00A0000A128A11EC220A128A118312031321
:100F0A003608A7003508A6000A128A1173240A12A5
:100F1A008A11DF300A128A11CF220A128A1143304B
:100F2A000A128A11CF220A128A11C0300A128A11B1
:100F3A0031230A128A11233083120313A0000A12E2
:100F4A008A11EC220A128A11831203133D08A100A6
:100F5A003C08A0000A128A11D1240A128A11DF3031
:100F6A000A128A11CF220A128A1143300A128A11EE
:100F7A00CF220A128A1183120313071DC52FC62F07
:100F8A00CE2F1E30A0000A128A11EC220A128A11F0
:100F9A00D52F2830A0000A128A11EC220A128A11CF
:100FAA00063083120313AF001330AE00AD30AD002C
:100FBA00AD0BDD2FAE0BDD2FAF0BDD2F8C2E0A1202
:100FCA008A1100280A128A1175220A128A11BC0093
:100FDA000A128A1176220A128A11BD00B301B401DB
:100FEA00B501B601B701B801B901BA01BB01830164
:060FFA000A128A11062E06
:02400E007A3FF7
:00000001FF
