:100000000A128A11EE2F00308A000408840A82073F
:1000100000345034723465347334733420342334F0
:10002000203474346F342034633468346E3467346D
:100030000034503449344E3420346F347234203418
:1000400077346134693474342E342E342E340034D1
:1000500045344E3454344534523420344E344534CF
:1000600057342034503449344E343A340034413417
:1000700043344334453453345334203447345234B6
:1000800041344E34543445344434003450344934CB
:100090004E3420344334483441344E3447344534AC
:1000A00044342134003445344E34543445345234CD
:1000B0002034503449344E343A34003457345234B6
:1000C0004F344E3447342034503449344E340034A5
:1000D0004C344F3443344B344534443421340034AD
:10082800313432343334343435343634373438347C
:1008380039342A3430342334F00070088312031713
:100848008D00831603178C130C14831203170C08DE
:1008580008008312031308150330F000F00B322C44
:100868008312031308115330F000F00B392C0800E1
:10087800F200F0307205F1008312031308080F39F3
:10088800710488000A128A112D240A128A1108009C
:100898007E088A007F0882000A128A114C240A12F4
:1008A8008A118000840A04087D0603190034FF0AAF
:1008B8000319FE0A502CF100831603178C18652CB7
:1008C800662C602C7108831203178D0070088C0049
:1008D800831603178C130C158B1355308D00AA3013
:1008E8008D008C148B170C110800882C7508840057
:1008F8000A128A1103200A128A110A128A119524EF
:100908000A128A110130F507750884000A128A1143
:1009180003200A128A11003A031D932C942C7A2C76
:100928000800F40083120313081488107408F039BF
:100938000A128A113C240A128A117408F30003303F
:100948000310F30DFF3E031DA42C0310730DF039A3
:100958000A128A113C240A128A110800F50083122F
:100968000313081088107508F0390A128A113C24FC
:100978000A128A117508F30003300310F30DFF3EC5
:10098800031DC12C0310730DF0390A128A113C247F
:100998000A128A110D30F400FB30F300F30BD22C4D
:1009A800F40BD22CD72C08008230F700DD30F6008B
:1009B800F60BDC2CF70BDC2CE12C30300A128A11F8
:1009C8003C240A128A112130F7007630F600F60B23
:1009D800EB2CF70BEB2C000030300A128A113C2468
:1009E8000A128A11C730F600F92CF60BF82CFC2CE9
:1009F800FD2C30300A128A113C240A128A11C730A1
:100A0800F600062DF60B052D092D0A2D20300A12A9
:100A18008A113C240A128A1128300A128A11B22437
:100A28000A128A110C300A128A11B2240A128A1187
:100A380006300A128A11B2240A128A1101300A12E7
:100A48008A11B2240A128A11080042308400203028
:100A5800F0000C30F10083130008F200040AF300E0
:100A68007008840072088000040AF000730884008B
:100A7800F10B2F2D83120313AC01AD018312031365
:100A88000614861406152C082D04031D4C2D4D2D17
:100A98004E2D06102C032D04031D532D542D552DBA
:100AA800861002302C062D04031D5B2D5C2D5D2D58
:100AB80006114130F100EE30F000F00B612DF10B22
:100AC800612D000083120313061A6B2D6C2D762DF1
:100AD800061E6F2D702D6C2D2C08203E840083136C
:100AE8000008B72D861A792D7A2D852D861E7D2D25
:100AF8007E2D7A2D2C08033E203E840083130008A7
:100B0800B72D061B882D892D942D061F8C2D8D2D14
:100B1800892D2C08063E203E840083130008B72D3B
:100B2800861B972D982DA32D861F9B2D9C2D982DC8
:100B38002C08093E203E840083130008B72D01309D
:100B4800AC070318AD0A0030AD072D08803AFF0046
:100B580080307F02031DB22D03302C02031CB52DFB
:100B6800B62D422D0030080083120313BB018316F3
:100B780003138801831203138801F83083160313C3
:100B88008600811307118312031307110730831698
:100B980003139F000A128A11D8240A128A110A30F4
:100BA8000A128A1120240A128A11A53A0319DD2D86
:100BB800DE2D062E3130F00000300A128A115F2433
:100BC8000A128A113230F00001300A128A115F24A9
:100BD8000A128A113330F00002300A128A115F2497
:100BE8000A128A113430F00003300A128A115F2485
:100BF8000A128A11A530F0000A300A128A115F24FD
:100C08000A128A1100300A128A1120240A128A1143
:100C180083120313B20001300A128A1120240A1227
:100C28008A1183120313B30002300A128A11202496
:100C38000A128A1183120313B40003300A128A11AC
:100C480020240A128A1183120313B50001300A12F4
:100C58008A11B2240A128A114B30F5000A128A113D
:100C680079240A128A110630FA001330F900AD30DF
:100C7800F800F80B3D2EF90B3D2EFA0B3D2E442EB5
:100C8800C0300A128A11B2240A128A11831203137D
:100C9800C101722E0A128A1129250A128A11831299
:100CA8000313BE0030303E02031C5B2E5C2E722EF6
:100CB8003A303E020318612E622E722E41082E3EF3
:100CC80084003E08831380002A300A128A11952472
:100CD8000A128A11013083120313C107043041023A
:100CE800031C772E782E4E2E0830FA009D30F9001E
:100CF8000530F800F80B7E2EF90B7E2EFA0B7E2EAF
:100D0800852E83120313C1014108323E84008313E8
:100D18000008F80041082E3E8400000878060319F0
:100D2800962E972E982EA02E0130C107043041022E
:100D3800031C9F2EA02E882E04304106031DA52ECD
:100D4800A62EB62F01300A128A11B2240A128A116D
:100D58002F30F5000A128A1179240A128A11831297
:100D6800031307154D30FA001930F9004F30F80019
:100D7800F80BBC2EF90BBC2EFA0BBC2EC32E83121B
:100D880003130711BB0101300A128A11B2240A1297
:100D98008A110130F5000A128A1179240A128A117F
:100DA800C0300A128A11B2240A128A111130F500D1
:100DB8000A128A1179240A128A1183120313BA01BA
:100DC800BC01BD010A128A1129250A128A11233A87
:100DD800031DEF2EF02EF52E013083120313BA00F7
:100DE800172F0330FA008A30F9005530F800F80B55
:100DF800FB2EF90BFB2EFA0BFB2E022F0130831270
:100E08000313BC070318BD0A0030BD073D08803A2C
:100E1800FF0080307F02031D132F1E303C02031C8D
:100E2800162F172FE62E831203133A0803191D2FC6
:100E38001E2F2A2E01300A128A11B2240A128A1190
:100E48002030F5000A128A1179240A128A11C0305A
:100E58000A128A11B2240A128A1183120313C001DA
:100E6800592F0A128A1129250A128A11831203138B
:100E7800BF0030303F02031C422F432F592F3A3016
:100E88003F020318482F492F592F4008363E840047
:100E98003F08831380002A300A128A1195240A1207
:100EA8008A11013083120313C00704304002031C67
:100EB8005E2F5F2F352F3608F00000300A128A1196
:100EC8005F240A128A11831203133708F0000130D5
:100ED8000A128A115F240A128A118312031338082E
:100EE800F00002300A128A115F240A128A11831252
:100EF80003133908F00003300A128A115F240A121A
:100F08008A1183120313C0014008363E84008313FC
:100F18000008F8004008323E84007808800001305C
:100F2800C00704304002031C9A2F9B2F882F0130E2
:100F38000A128A11B2240A128A113E30F5000A12E6
:100F48008A1179240A128A113330FA00BB30F90069
:100F5800DF30F800F80BAE2FF90BAE2FFA0BAE2FDF
:100F6800B52F2A2E01300A128A11B2240A128A11C8
:100F78005630F5000A128A1179240A128A110130B2
:100F880083120313BB0703303B02031CCC2FCD2F66
:100F9800A82FC0300A128A11B2240A128A116030AE
:100FA800F5000A128A1179240A128A117F30FA0090
:100FB800D430F9003130F800F80BE02FF90BE02FAE
:100FC800FA0BE02FE72F83120313BB012A2E0A1214
:100FD8008A11002883134E30FD000430FE001430BF
:100FE800FF00423084000A128A1150240A128A1122
:080FF80083010A128A11B82DD1
:02400E007A3FF7
:00000001FF
