:060000000A128A1110280B
:10000800FE00030EF0000408F1000A08F2007F0861
:10001800F3000A128A11E4280A128A111328F60139
:10002800F701F801F90183120313AA01AB01AC012E
:10003800AD0183010A128A11862883120313A501D0
:10004800A11F272828282F28A009A109A00A0319D9
:10005800A10A0130A500A31F322833283A28A20993
:10006800A309A20A0319A30A0130A506A601A7013C
:100078002008210403194128422877280130A400C8
:100088004E2801300310A00DA10DFF3E031D462888
:100098000130A407A11F5128522845280130031018
:1000A800A60DA70DFF3E031D532821082302031D9B
:1000B8005F2820082202031C622863286A28200877
:1000C800A2022108031CA303A30226140130031073
:1000D800A10CA00CFF3E031D6B280130A402031DD8
:1000E800762877285228250803197B287C28812818
:1000F800A609A709A60A0319A70A2708A10026081E
:10010800A000080083160313880107108710071141
:1001180006148614831203138801870107148714B1
:100128000711F9010A128A119B210A128A11053056
:1001380083160313810064308312031381000B11AB
:100148008B168B100B168B172A03031DAC28AD28B2
:10015800C028AA01633079020318B328B428C0283C
:100168000130F9070A128A119B210A128A11831297
:1001780003130715FA30F8008618C328C428A828DE
:100188007608031DC828C928DC281930F600790824
:100198000319CF28D028DC280130F9020A128A1165
:1001A8009B210A128A11831203130715FA30F800EB
:1001B800861CDF28E028DC28A8280A128A111028C3
:1001C8000B1DE728E82827296430831203138100D0
:1001D8000B1178080319F128F228FA280130F802DF
:1001E8007808031DF828F928FA2807117708031951
:1001F800FE28FF2801290130F7027608031905298E
:10020800062908290130F602071487142B08031D54
:100218000E290F291C292D08013E84000A128A1173
:10022800C6210A128A11880007100130AB0027295D
:100238002C08013E84000A128A11C6210A128A116A
:1002480088008710AB018B1C2A292B2937297708AE
:10025800031D2F2930293629013083120313AA00E0
:100268001930F7008B107308FF0072088A007108B4
:100278008400700E8300FE0E7E0E0900F5018312C5
:100288000313A31F482949295029A209A309A20A2F
:100298000319A30A0130F500A11F5329542959292C
:1002A800A009A109A00A0319A10A20082104031919
:1002B8005E295F298C290130F4006B290130031075
:1002C800A00DA10DFF3E031D63290130F407A11FF6
:1002D8006E296F29622921082302031D7529200828
:1002E8002202031C782979297F292008A2022108E3
:1002F800031CA303A30201300310A10CA00CFF3EB2
:10030800031D80290130F402031D8B298C296F29D4
:1003180075080319902991299629A209A309A20A07
:100328000319A30A2308A1002208A00008000A3024
:1003380083120313A0000030A1007908A800A901C6
:100348002808A2002908A3000A128A1121200A12EB
:100358008A11831203132008AD000A30A000003070
:10036800A1007908A800A9012808A2002908A3006B
:100378000A128A1142210A128A11831203132008D1
:10038800AC00080001308A000408840A820700349F
:100398003F3406345B344F3466346D347D3407346F
:0403A8007F346F34FB
:02400E007A3FF7
:00000001FF
