:100000000A128A11E72F00308A000408840A820746
:1000100000343134323433343434353436343734D4
:10002000383439342A343034233454344834453461
:1000300052344D344F3453345434413454340034F6
:100040005334453454343A34333430344334003444
:10005000543445344D3450343A34003420344F3421
:100060004E34203400345334453454343A3400345C
:0A00700020344F3446344634003487
:10048E001E3400348312031308150330F000F00BF2
:10049E004E2A8312031308115330F000F00B552A25
:1004AE000800F200F0307205F10083120313080801
:1004BE000F39710488000A128A1149220A128A1110
:1004CE0008002130F200F20B6A2A831203131F1563
:1004DE001F19722A732A6F2A1E08F100831603133E
:1004EE001E08F0000800892A7A0884000A128A1170
:1004FE0003200A128A110A128A1196220A128A11EE
:10050E000130FA077A0884000A128A1103200A12AF
:10051E008A11003A031D942A952A7B2A0800F900B5
:10052E0083120313081488107908F0390A128A11FD
:10053E0058220A128A117908F80003300310F80DB8
:10054E00FF3E031DA52A0310780DF0390A128A11F9
:10055E0058220A128A110800F401F501701CB82AFB
:10056E00B92ABF2A7208F4070318F50A7308F507AB
:10057E0001300310F20DF30DFF3E031DC02A0130B2
:10058E000310F10CF00CFF3E031DC72A7008710416
:10059E00031DD22AD32AB52A7508F1007408F0007B
:1005AE000800F50083120313081088107508F0393F
:1005BE000A128A1158220A128A117508F3000330A2
:1005CE000310F30DFF3E031DE72A0310730D0A12ED
:1005DE008A1158220A128A110D30F400FB30F300F2
:1005EE00F30BF72AF40BF72AFC2A080070087104A3
:1005FE000319022B032B302B0130F4000F2B01308B
:10060E000310F00DF10DFF3E031D072B0130F40713
:10061E00F11F122B132B062B71087302031D192BBE
:10062E0070087202031C1C2B1D2B232B7008F20268
:10063E007108031CF303F30201300310F10CF00CEC
:10064E00FF3E031D242B0130F402031D2F2B302BF4
:10065E00132B7308F1007208F0000800F401F50185
:10066E007008710403193C2B3D2B722B0130F600E0
:10067E00492B01300310F00DF10DFF3E031D412BF0
:10068E000130F607F11F4C2B4D2B402B0130031080
:10069E00F40DF50DFF3E031D4E2B71087302031D65
:1006AE005A2B70087202031C5D2B5E2B652B700893
:1006BE00F2027108031CF303F302741401300310E9
:1006CE00F10CF00CFF3E031D662B0130F602031DEC
:1006DE00712B722B4D2B7508F1007408F000080079
:1006EE000030FC000030FB000030FA000030F90052
:1006FE00701C822B832B9A2B7408F9077508031133
:10070E000318013E03198C2BFA0776080311031800
:10071E00013E0319932BFB07770803110318013EC3
:10072E0003199A2BFC070130F8000310F40DF50D98
:10073E00F60DF70DF80B9C2B01300310F30CF20C99
:10074E00F10CF00CFF3E031DA42B73087204710410
:10075E007004031DB32BB42B7F2B7C08F3007B0896
:10076E00F2007A08F1007908F0000800F501F31F95
:10077E00C12BC22BC92BF209F309F20A0319F30A92
:10078E000130F500F11FCC2BCD2BD22BF009F10946
:10079E00F00A0319F10A700871040319D72BD82B2C
:1007AE00052C0130F400E42B01300310F00DF10D97
:1007BE00FF3E031DDC2B0130F407F11FE72BE82B66
:1007CE00DB2B71087302031DEE2B70087202031CE3
:1007DE00F12BF22BF82B7008F2027108031CF303B5
:1007EE00F30201300310F10CF00CFF3E031DF92B48
:1007FE000130F402031D042C052CE82B7508031997
:10080E00092C0A2C0F2CF209F309F20A0319F30A28
:10081E007308F1007208F00008008230F700DD3036
:10082E00F600F60B182CF70B182C1D2C8312031345
:10083E0008108810081130300A128A1158220A1234
:10084E008A112130F7007630F600F60B2C2CF70BC0
:10085E002C2C000030300A128A1158220A128A11EA
:10086E00C730F6003A2CF60B392C3D2C3E2C30308E
:10087E000A128A1158220A128A11C730F600472C22
:10088E00F60B462C4A2C4B2C20300A128A11582279
:10089E000A128A11C730F600542CF60B532C572C23
:1008AE00582C28300A128A11D8220A128A110C30BA
:1008BE000A128A11D8220A128A1106300A128A11D5
:1008CE00D8220A128A1101300A128A11D8220A126B
:1008DE008A110800103083120313A2002730A300E0
:1008EE00A001CB2C2308F1002208F0007B08F300B6
:1008FE007A08F2000A128A1135230A128A11700838
:10090E0083120313A1002108031D8E2C8F2C9A2C09
:10091E002008031D932C942C9A2C22032304031DD0
:10092E00992C9A2CA52C2108303E0A128A11962257
:10093E000A128A11013083120313A0002308F1005A
:10094E002208F0007B08F3007A08F2000A128A11DE
:10095E00FD220A128A117108FB007008FA000A3093
:10096E00F0000030F100831203132308F300220875
:10097E00F2000A128A1135230A128A1171088312A3
:10098E000313A3007008A20022082304031DD02C19
:10099E00D12C792C0800F501F11FD62CD72CDE2C8A
:1009AE00F009F109F00A0319F10A0130F500F31FFD
:1009BE00E12CE22CE92CF209F309F20A0319F30AED
:1009CE000130F506F601F701700871040319F02CD9
:1009DE00F12C262D0130F400FD2C01300310F00D0A
:1009EE00F10DFF3E031DF52C0130F407F11F002D14
:1009FE00012DF42C01300310F60DF70DFF3E031DF3
:100A0E00022D71087302031D0E2D70087202031C55
:100A1E00112D122D192D7008F2027108031CF3030B
:100A2E00F302761401300310F10CF00CFF3E031D9F
:100A3E001A2D0130F402031D252D262D012D7508CA
:100A4E0003192A2D2B2D302DF609F709F60A031955
:100A5E00F70A7708F1007608F000080000308312DC
:100A6E000313AB000030AA000030A9000030A8002C
:100A7E0023082204210420040319462D472D922D0C
:100A8E000130AC00552D0130FD000310A00DA10D5D
:100A9E00A20DA30DFD0B4C2D0130AC07A31F582D3D
:100AAE00592D4A2D0130FD000310A80DA90DAA0DD8
:100ABE00AB0DFD0B5B2D23082702031D702D2208A5
:100ACE002602031D702D21082502031D702D2008FE
:100ADE002402031C732D742D832D2008A4022108DB
:100AEE00031C210FA5022208031C220FA6022308B5
:100AFE00031C230FA702281401300310A30CA20C11
:100B0E00A10CA00CFF3E031D842D0130AC02031D71
:100B1E00912D922D592D2B08A3002A08A2002908E9
:100B2E00A1002808A00008006430F0000030F10099
:100B3E007D08F3007C08F2000A128A1135230A128E
:100B4E008A11710883120313A7007008A60064307F
:100B5E00F0000030F1007D08F3007C08F2000A126C
:100B6E008A11FD220A128A11700883120313A8003B
:100B7E002708FB002608FA000A128A1171240A12AD
:100B8E008A112E300A128A1196220A128A110A30FE
:100B9E00F0000030F100831203132808A400A50111
:100BAE002408F2002508F3000A128A11D2240A1230
:100BBE008A117008303E0A128A1196220A128A1180
:100BCE000A30F0000030F100831203132808A4004D
:100BDE00A5012408F2002508F3000A128A11BD238C
:100BEE000A128A117008303E0A128A1196220A12CF
:100BFE008A110800F20183120313061486140615D7
:100C0E007208031D0B2E0C2E0E2E0610162E7203BE
:100C1E00031D122E132E152E8610162E06110D30B4
:100C2E00F100FB30F000F00B1A2EF10B1A2E1F2ED6
:100C3E0083120313061A242E252E322E061E282E5C
:100C4E00292E252E7208013E84000A128A110320D5
:100C5E000A128A116E2E861A352E362E432E861EB7
:100C6E00392E3A2E362E7208043E84000A128A114C
:100C7E0003200A128A116E2E061B462E472E542E64
:100C8E00061F4A2E4B2E472E7208073E84000A126C
:100C9E008A1103200A128A116E2E861B572E582E89
:100CAE00652E861F5B2E5C2E582E72080A3E84001F
:100CBE000A128A1103200A128A116E2E0130F207CF
:100CCE0003307202031C6C2E6D2E022E00300800B3
:100CDE008316031388010711F8308600811305145B
:100CEE00831203138801870107308600BE308316F6
:100CFE0003139F004130831203139F000A128A11BF
:100D0E0014240A128A1180300A128A11D8220A1269
:100D1E008A110D30FA000A128A117A220A128A11E9
:100D2E00C0300A128A11D8220A128A111830FA001B
:100D3E000A128A117A220A128A111A3083120313A6
:100D4E00AF005E30AE006D30AD00AD0BAC2EAE0B15
:100D5E00AC2EAF0BAC2EB32E01300A128A11D82254
:100D6E000A128A110A128A1101260A128A11831294
:100D7E000313B90030303902031CC62EC72E122FB2
:100D8E003A3039020318CC2ECD2E122F3808031DFF
:100D9E00D12ED22EEE2E3908D03EB7003708AD0038
:100DAE00AE012D08F0002E08F1000A30F2000030DE
:100DBE00F3000A128A11B3220A128A1171088312E1
:100DCE000313BB007008BA000130B8001D2F37089E
:100DDE00AD00AE012D08F0002E08F1000A30F20031
:100DEE000030F3000A128A11B3220A128A118312FA
:100DFE00031339087007AF00003003180130710774
:100E0E00B0002F08D03EBA0030080318013EFF3E56
:100E1E00BB00B8011D2F2A303906031D172F182FBE
:100E2E001D2F1E30BA000030BB00102F0A128A117F
:100E3E0068220A128A11710883120313B600700811
:100E4E00B5000030A3000030A2000330A100FF3037
:100E5E00A0003508F0003608F100F201F301003071
:100E6E00F7000030F600C330F5005030F4000A12DF
:100E7E008A1177230A128A11730883120313A700AB
:100E8E007208A6007108A5007008A4000A128A1143
:100E9E0035250A128A11831203132108B400200883
:100EAE00B3006430F0000030F1003408F300330872
:100EBE00F2000A128A1135230A128A11710883125E
:100ECE000313B2007008B1003B083202031D712FEC
:100EDE003A083102031C742F752F772F0715782FC0
:100EEE00071180300A128A11D8220A128A11203074
:100EFE00FA000A128A117A220A128A118312031335
:100F0E003408FD003308FC000A128A119B250A12D0
:100F1E008A11DF300A128A1196220A128A11433080
:100F2E000A128A1196220A128A11C0300A128A11E6
:100F3E00D8220A128A112B30FA000A128A117A224A
:100F4E000A128A11831203133B08FB003A08FA00B7
:100F5E000A128A1171240A128A11DF300A128A11BA
:100F6E0096220A128A1143300A128A1196220A1206
:100F7E008A1183120313071DC52FC62FCE2F2630BD
:100F8E00FA000A128A117A220A128A11D52F3030EB
:100F9E00FA000A128A117A220A128A110630831274
:100FAE000313AF001330AE00AD30AD00AD0BDD2F2F
:100FBE00AE0BDD2FAF0BDD2FB92E0A128A110028D2
:100FCE000A128A1147220A128A11BA000A128A11CB
:100FDE0048220A128A11BB00B101B201B301B40159
:100FEE00B501B601B701B801B90183010A128A1120
:020FFE006F2E54
:02400E007A3FF7
:00000001FF
