:100000000A128A110C280134FE00030EF0000A08BF
:10001000F1000A168A11702F0A128A110F28831311
:100020006530FD001030FE009030FF005E3084002F
:100030000A168A1130210A128A110A128A11032023
:100040000A128A11FA00473084005E300A168A11BB
:1000500097200A128A11F90183010A128A11742C5D
:100060000A168A1121220A128A1100300A168A11F0
:100070009F200A128A110B3083120313A6008330CB
:10008000A7000A168A1147220A128A1140300A165E
:100090008A119F200A128A110E3083120313A600C0
:1000A0008430A7000A168A1147220A128A11831285
:1000B00003135408031D5D285E2863281730AB0026
:1000C0008430AC006728FC30AB008330AC002B08D8
:1000D000A6002C08A7000A168A1147220A128A11C4
:1000E00014300A168A119F200A128A1105308312D1
:1000F0000313A6008430A7000A168A1147220A12A9
:100100008A11831203135308031D872888288D281A
:10011000A730AD008330AE009128B230AD008330FF
:10012000AE002D08A6002E08A7000A168A11472245
:100130000A128A1154300A168A119F200A128A1153
:100140004F3083120313A6008330A7000A168A11CA
:1001500047220A128A11063083120313AA001330B1
:10016000A900AD30A800A80BB328A90BB328AA0B8F
:10017000B3280A128A15F8200A128A11831203136F
:10018000AF0023302F06031DC628C728CB282330F5
:10019000D000CE01F0282A302F06031DD028D12808
:1001A000302854080319D528D7280130D828003022
:1001B000D4005408031DDD28DE28E1288713D3016D
:1001C000D1010B3083120313AA002630A9005D3041
:1001D000A800A80BE928A90BE928AA0BE9283028D0
:1001E00008008312031308150330F300F30BF628FD
:1001F0008312031308115330F300F30BFD2808009A
:10020000FF1B0A2983137F1883170008840A031928
:10021000FF0A08007F087F398A000408840A03194E
:10022000FF0A8200313432343334343435343634D6
:100230003734383439342A343034233420342034B9
:10024000203420342034203420342034203420340E
:10025000203420342034203420342034003423341B
:100260003D344234413443344B3420342034203440
:1002700020342034203420342034203420340034FE
:1002800033343A345234653473346534743420343E
:1002900020342034203420342034203420342034BE
:1002A00000344F344C3444342034503449344E34C8
:1002B0003A34203420342034203420342034203484
:1002C000203400344E3445345734203450344934CB
:1002D0004E343A3420342034203420342034203436
:1002E00020342034003453344534543454344934A5
:1002F0004E344734533420342034203420342034D6
:10030000203420342034003444344F344F345234B9
:1003100020344C344F3443344B3420342034203494
:1003200020342034203420340034573452344F34B5
:100330004E3447342034503449344E342134203440
:1003400020342034203420342034003445344E34DA
:100350005434453452342034503449344E343A34D1
:1003600020342034203420342034203400345434D9
:100370004834453452344D344F345334543441347A
:1003800054342034203420342034203420340034B9
:1003900052344534533445345434203444344F3487
:1003A0004E34453421342034203420342034203459
:1003B00000342034573452344F344E3447342034D0
:1003C000503449344E342134203420342034203405
:1003D000203400344C3449344734483454342034C5
:1003E0004D344F34443445343A34203420342034AE
:1003F000203420340034503449344E3420344334D3
:10040000483441344E344734453444342134203464
:100410002034203420340034203420344C344F3401
:100420004134443449344E3447342E342E342E343F
:100430002034203420342034003453344D344134BB
:1004400052345434203447344134523441344734E4
:10045000453420342034203420340034533459348B
:100460005334543445344D342034523445344134BB
:10047000443459342134203420342034003420349E
:10048000203455344E344C344F3443344B3445349B
:1004900044342E342E342E3420342034203400348E
:1004A0005334453454342034543445344D3450346A
:1004B00020342834433429343A342034203420344E
:1004C00000342A343D3453344534543420342034F9
:1004D00023343D344234413443344B3420342034CB
:1004E000203400342A343D344F34503445344E34B3
:1004F000203423343D344234413443344B342034AB
:1005000020342034003431343A344C346934673484
:1005100068347434203432343A34503449344E34EC
:10052000203420342034003448344F344D344534A2
:1005300020344134553454344F34203476343234FA
:100540002E34313420342034003453344534543480
:100550002034483452342034283430342D3432346A
:10056000333429343A342034203400342A343D34AE
:100570004334593443344C344534203423343D34EB
:100580004234413443344B34203420340034523428
:100590004534533445345434203441344C344C3491
:1005A0003F3420342A343D3459342034203400344C
:1005B00053344534543420344D3449344E3420348B
:1005C000283430342D343534393429343A34203415
:1005D00000342034413443344334453453345334A9
:1005E00020344734523441344E3454344534443446
:1005F00020340034203420344434493447344934DE
:10060000543441344C34203443344C344F34433428
:100610004B3420340034533445344334553452344D
:1006200049345434593420345334593453345434C1
:1006300045344D34203400345234433435343D3461
:100640004C3443344B3420345234433436343D3408
:100650004F3450344E3420340034203453344D342D
:10066000413452345434203448344F344D344534BA
:1006700020345334593453342034003444346534F2
:100680006634613475346C347434203450344934F5
:100690004E343A34313432343334343400342A343E
:1006A0003D3454344F34473447344C34453420348B
:1006B00023343D344234413443344B3400344334E6
:1006C000203420342034203420342034203420348A
:1006D0002034203420342034203400344D3441344C
:1006E0004E34553441344C3420344F344E3420345D
:1006F00020342034203420340034413455345434F0
:100700004F34203428344C34443452342934203487
:1007100020342034203400344D3441344E345534A8
:1007200041344C3420344F34463446342034203461
:1007300020342034003441345634413449344C346C
:10074000413442344C3445343A342034003451344A
:100750005534493445345434203420342034203442
:10076000203400344134433454344934563445340D
:10077000213420342034203400345334453443347D
:100780003A344F3446344634203420342034003454
:100790004F3443344334553450344934453444346D
:1007A0003A34203400345334453443343A344134F9
:1007B00052344D3445344434203400342F343334EF
:1007C00020342034203420342034203420340034A9
:1007D0004C344F3443344B34453444342034203487
:1007E0002034003455344E344C344F3443344B347D
:1007F0004534443420340034413452344D3445348B
:100800004434203420342034003441344C344134D6
:1008100052344D343A342034203400345334543478
:1008200041345434553453343A342034003444344D
:1008300049345334413452344D3445344434003413
:100840002034203423343D344234413443344B3457
:100850000034203444344134543445343A34203460
:10086000003441344C34413452344D343A34003441
:1008700043342034463441344E343A3400344F3417
:10088000503445344E3420340034543449344D34DB
:1008900045343A34003447344134543445343A34DE
:1008A000003443344C344F345334453400344334EF
:1008B000203447343A3400345334453454343A34D1
:1008C00000344E344F3457343A3400344F344E34BD
:1008D000203400344F34463446340034323430341B
:1008E00000342F3433340034FF3083160313850073
:1008F000F1308600870187150716880101308900CD
:10090000831203138501FF30860087018801890166
:1009100004308316031381008B100B168E309F005A
:100920008130831203139F008030831603139400D9
:10093000283083120313940031308316031393007D
:1009400064308312031381000B118B168B170A126C
:100950008A1500200A128A1100300A168A119F2077
:100960000A128A112D3083120313A6008330A700C8
:100970000A168A1147220A128A1140300A168A1171
:100980009F200A128A110C3083120313A6008230B2
:10099000A7000A168A1147220A128A1127308312E9
:1009A0000313C4000D30C3002530C200C20BD62C87
:1009B000C30BD62CC40BD62CDD2C14300A168A118E
:1009C000AA200A128A1183120313C5000A304502B5
:1009D000031CEB2CEC2CF52C333045020318F12CC6
:1009E000F22CF52C4508E100FF2C1C30E1001C30F6
:1009F000F30014300A168A1183210A128A110A3070
:100A00000A168A11AA200A128A11A53A0319092D79
:100A10000A2D3D2D313083120313C7003230C80038
:100A20003330C9003430CA003130F30000300A16C8
:100A30008A1183210A128A113230F30001300A161A
:100A40008A1183210A128A113330F30002300A1608
:100A50008A1183210A128A113430F30003300A16F6
:100A60008A1183210A128A11A530F3000A300A166E
:100A70008A1183210A128A11612D00300A168A1107
:100A8000AA200A128A1183120313C70001300A1622
:100A90008A11AA200A128A1183120313C800023095
:100AA0000A168A11AA200A128A1183120313C90096
:100AB00003300A168A11AA200A128A11831203131C
:100AC000CA000A168A119E220A128A11003A0319D4
:100AD0006A2D6B2D892D83120313AD01AE010930F0
:100AE000AF000630B0001A30B1000C300A168A117F
:100AF00070260A128A11033083120313C4008A304D
:100B0000C3005530C200C20B832DC30B832DC40B11
:100B1000832D0A128A1567200A128A113C3083122B
:100B200003135C020318952D962DB22D18305B022D
:100B300003189B2D9C2DB22D64080319A02DA12D07
:100B4000B22D203064020318A62DA72DB22D630804
:100B50000319AB2DAC2DB22D0D306302031CB12D4A
:100B6000B22DD32DAD01AE010930AF000630B0007B
:100B70001A30B1000C300A168A1170260A128A1136
:100B8000033083120313C4008A30C3005530C200FF
:100B9000C20BC82DC30BC82DC40BC82D0A128A1551
:100BA00067200A128A110A168A1108210A128A116C
:100BB00000300A168A119F200A128A112E308312E1
:100BC0000313A6008230A7000A168A1147220A12D0
:100BD0008A1140300A168A119F200A128A113E306B
:100BE00083120313A6008330A7000A168A11472236
:100BF0000A128A11333083120313C400BB30C300BE
:100C0000DF30C200C20B022EC30B022EC40B022E19
:100C100083120313871607130130E0000A168A11A6
:100C20006F220A128A110A168A11E5240A128A1101
:100C30000A168A116A210A128A110A168A112122B9
:100C40000A128A110A168A11EB200A128A118312DB
:100C500003134E08031D2D2E2E2ECD2E0130CF074F
:100C6000FF304F07C20014304202031C382E392EC9
:100C70003F2ECF010A128A1551220A128A110A1632
:100C80008A119D210A128A1183120313C600313082
:100C90004606031D4C2E4D2E642E0A168A1108217D
:100CA0000A128A11013083120313CE000A128A1528
:100CB00034230A128A1183120313CE010A168A11F1
:100CC00008210A128A11CD2E32304606031D692EE4
:100CD0006A2E792E0A168A1108210A128A11023008
:100CE00083120313CE000A128A11DB260A128A111C
:100CF0005B2E33304606031D7E2E7F2E8E2E0A1667
:100D00008A1108210A128A11033083120313CE00BC
:100D10000A128A1592210A128A115B2E3430460675
:100D2000031D932E942EA32E0A168A1108210A124F
:100D30008A11043083120313CE000A128A11302064
:100D40000A128A115B2E35304606031DA82EA92EE5
:100D5000B82E0A168A1108210A128A110530831248
:100D60000313CE000A128A1563240A128A115B2E1D
:100D700036304606031DBD2EBE2ECD2E0A168A1114
:100D800008210A128A11063083120313CE000A12B8
:100D90008A15AD250A128A115B2E0D3083120313BA
:100DA000C300FB30C200C20BD32EC30BD32E0E2EBA
:100DB0000A128A110C280A168A11E5240A128A11CD
:100DC00000300A168A119F200A128A11B730831246
:100DD0000313A6008130A7000A168A1147220A12BF
:100DE0008A1140300A168A119F200A128A11613036
:100DF00083120313A6008430A7000A168A11472223
:100E00000A128A116430F3000030F40083120313D5
:100E10005F08F6005E08F5000A168A11A8230A1278
:100E20008A11740883120313BD007308BC003D08C7
:100E3000A7003C08A6000A168A1144250A128A1146
:100E4000383083120313A6008430A7000A168A11D3
:100E500047220A128A11831203130719302F312FE8
:100E6000362F6A30BE008430BF003A2F6630BE0095
:100E70008430BF003E08A6003F08A7000A168A116A
:100E800047220A128A1114300A168A119F200A1268
:100E90008A115C3083120313A6008430A7000A165F
:100EA0008A1147220A128A11831203136108B900BA
:100EB000BA013908A6003A08A7000A168A11442583
:100EC0000A128A11DF300A168A11FC210A128A11CD
:100ED0005F3083120313A6008330A7000A168A111D
:100EE00047220A128A1154300A168A119F200A12C8
:100EF0008A11613083120313A6008230A7000A16FC
:100F00008A1147220A128A11063083120313BB008A
:100F10001330BA00AD30B900B90B8C2FBA0B8C2F3F
:100F2000BB0B8C2F0A128A15F8200A128A11831221
:100F30000313C00023304006031D9F2FA02FA42FB2
:100F40002330D000CE01E02F2A304006031DA92F08
:100F5000AA2FDB2E0A168A1108210A128A110030E4
:100F60000A168A119F200A128A1150308312031325
:100F7000A6008230A7000A168A1147220A128A1197
:100F800032300A168A11E4260A128A1183120313D8
:100F9000C1000A304102031CCE2FCF2FDB2E33308D
:100FA00041020318D42FD52FDB2E4108E100610840
:100FB000F30014300A168A1183210A128A11DB2EDB
:100FC00008000A168A11B7200A128A118316031321
:100FD0009115141CEC2FED2FE92F83120313130826
:100FE000F3000A168A11B7200A128A118316031316
:100FF00091161116111AFD2FFE2FFA2F73080800F3
:10100000023083120313A2004530A100A930A000D2
:10101000A00B0828A10B0828A20B08288312031391
:1010200008108810081130300A168A11F8200A12A8
:101030008A15213083120313A1007530A000A00B84
:101040001F28A10B1F28242830300A168A11F820E7
:101050000A128A15C73083120313A0002F28A00B91
:101060002E28322830300A168A11F8200A128A15E2
:10107000C73083120313A0003D28A00B3C28402852
:1010800020300A168A11F8200A128A15C7308312F6
:101090000313A0004B28A00B4A284E2828300A161C
:1010A0008A1104230A128A150C300A168A110423A5
:1010B0000A128A1506300A168A1104230A128A15A2
:1010C00001300A168A1104230A128A1508000A162A
:1010D0008A11D1200A128A15D0300A168A113F21AE
:1010E0000A128A1500300A168A113F210A128A153F
:1010F0000A168A11C4200A128A15D1300A168A11DA
:101100003F210A128A150A168A11B9210A128A1574
:1011100083120313AD000A168A11B9210A128A1527
:1011200083120313DC000A168A11B9210A128A15E8
:1011300083120313DB000A168A11B9210A128A15D9
:101140000A168A11B9210A128A1583120313E400C0
:101150000A168A11B9210A128A1583120313E300B1
:101160000A128A11E1270A128A1583120313E20078
:101170000A168A11DE200A128A15831203132D081B
:101180007F390A168A1154210A128A158312031311
:10119000DD005C080A168A1154210A128A1583128E
:1011A0000313DC005B083F390A168A1154210A1226
:1011B0008A1583120313DB0064080A168A1154216E
:1011C0000A128A1583120313E40063080A168A11AF
:1011D00054210A128A1583120313E30062080A16C7
:1011E0008A1154210A128A1583120313E20008009F
:1011F0000A168A118A200A128A15F5010A168A111E
:101200008A200A128A157508031D072908290C2946
:1012100083120313861018297503031D1029112941
:10122000152983120313061118298312031386113B
:101230000430F4003D30F300F30B1C29F40B1C299F
:10124000212983120313061A262927293B290A1666
:101250008A118A200A128A157508123E840081308C
:101260000318013E83120313FF000A128A110021A2
:101270000A128A159129861A3E293F2953290A16EE
:101280008A118A200A128A157508153E8400813059
:101290000318013E83120313FF000A128A11002172
:1012A0000A128A159129061B562957296B290A16F5
:1012B0008A118A200A128A157508183E8400813026
:1012C0000318013E83120313FF000A128A11002142
:1012D0000A128A159129861B6E296F2983290A16FD
:1012E0008A118A200A128A1575081B3E84008130F3
:1012F0000318013E83120313FF000A128A11002112
:101300000A128A1591290130F50703307502031C72
:101310008A298B29FE280A168A118A200A128A1520
:10132000003008000A168A116A210A128A15003054
:101330000A168A119F200A128A151D308312031380
:10134000A6008230A7000A168A1147220A128A15BF
:1013500040300A168A119F200A128A15C83083125B
:101360000313A6008330A7000A168A1147220A1227
:101370008A15831203135A08AC00AD012C08A6008D
:101380002D08A7000A168A1144250A128A15DE3094
:1013900083120313A6008330A7000A168A1147227E
:1013A0000A128A1514300A168A119F200A128A1509
:1013B0009B3083120313A6008330A7000A168A11FC
:1013C00047220A128A15033083120313AC005A080D
:1013D0002C02A600A701031CA7030A168A114425A4
:1013E0000A128A15273083120313A6008130A70042
:1013F0000A168A1147220A128A1554300A168A11CF
:101400009F200A128A154B3083120313A6008430E2
:10141000A7000A168A1147220A128A15831203139B
:101420008718132A142A192A5130B0008430B100C9
:101430001D2A3F30B0008430B1003008A6003108CA
:10144000A7000A168A1147220A128A152030831231
:101450000313A6008430A7000A168A1147220A1235
:101460008A15033083120313AE008A30AD00553065
:10147000AC00AC0B392AAD0B392AAE0B392A0A1253
:101480008A15F8200A128A1583120313AF0023303D
:101490002F06031D4C2A4D2A92292330D000CE015D
:1014A00008000A128A1567200A128A1500300A16E7
:1014B0008A119F200A128A15943083120313A60002
:1014C0008230A7000A168A1147220A128A15403074
:1014D0000A168A119F200A128A15453083120313B7
:1014E000A6008430A7000A168A1147220A128A151C
:1014F000831203135B080A168A11D0220A128A1576
:101500003A300A168A11FC210A128A158312031333
:101510005C080A168A11D0220A128A153A300A1675
:101520008A11FC210A128A15831203135D080A1618
:101530008A11D0220A128A1514300A168A119F20A5
:101540000A128A155E3083120313A6008430A700A6
:101550000A168A1147220A128A156430F3000030F5
:10156000F400831203135F08F6005E08F5000A1604
:101570008A11A8230A128A15740883120313AF0074
:101580007308AE002F08A7002E08A6000A168A11BD
:1015900044250A128A15DF300A168A11FC210A1224
:1015A0008A15573083120313A6008430A7000A1649
:1015B0008A1147220A128A15831203135A08303EF1
:1015C0000A168A11FC210A128A157130831203133C
:1015D000A6008430A7000A168A1147220A128A152B
:1015E00054300A168A119F200A128A158312031397
:1015F0005408031DFC2AFD2A022BBD30B0008330A5
:10160000B100062BD330B0008330B1003008A60003
:101610003108A7000A168A1147220A128A153130AA
:1016200083120313A6008430A7000A168A114722EA
:101630000A128A15831203135308031D202B212B32
:10164000262B6A30B2008430B3002A2B6630B200F9
:101650008430B3003208A6003308A7000A168A11A6
:1016600047220A128A1508000A128A1567200A12F0
:101670008A1500300A168A119F200A128A15FA303C
:1016800083120313A6008230A7000A168A1147228C
:101690000A128A1540300A168A119F200A128A15EA
:1016A0002C3083120313A6008130A7000A168A117A
:1016B00047220A128A15831203135B080A168A113D
:1016C000D0220A128A153A300A168A11FC210A120F
:1016D0008A15831203135C080A168A11D0220A1293
:1016E0008A153A300A168A11FC210A128A158312C9
:1016F00003135D080A168A11D0220A128A152830AF
:1017000083120313A6008130A7000A168A1147220C
:101710000A128A1514300A168A119F200A128A1595
:10172000293083120313A6008430A7000A168A11F9
:1017300047220A128A158312031364080A168A11B3
:10174000D0220A128A152F300A168A11FC210A1299
:101750008A158312031363080A168A11D0220A120B
:101760008A152F300A168A11FC210A128A156E304A
:1017700083120313A6008430A7000A168A11472299
:101780000A128A158312031362080A168A11D022DC
:101790000A128A1554300A168A119F200A128A15D5
:1017A000613083120313A6008230A7000A168A1143
:1017B00047220A128A15073083120313B5005830E6
:1017C000B4005930B300B30BE32BB40BE32BB50BD0
:1017D000E32B0A128A15F8200A128A1583120313C2
:1017E000B80023303806031DF62BF72BFB2B2330D4
:1017F000D000CE01622C2A303806031D002C012CAB
:10180000342B0A168A1108210A128A1500300A168A
:101810008A119F200A128A15A53083120313A6008D
:101820008230A7000A168A1147220A128A15173039
:101830000A168A11E4260A128A1583120313B600C7
:101840000A168A1108210A128A1500300A168A110E
:101850009F200A128A15D83083120313A600823003
:10186000A7000A168A1147220A128A153B300A1667
:101870008A11E4260A128A1583120313B700370867
:10188000AD00AE016408AF006308B0006208B100AB
:1018900036080A168A1170260A128A150230831237
:1018A0000313B5004530B400A930B300B30B562C78
:1018B000B40B562CB50B562C0A128A1567200A1247
:1018C0008A15342B08000A168A11EB200A128A1591
:1018D00000300A168A119F200A128A15843083125A
:1018E0000313A6008130A7000A168A1147220A12A4
:1018F0008A1540300A168A119F200A128A150E3066
:1019000083120313A6008430A7000A168A11472207
:101910000A128A15831203136008031D902C912C60
:10192000962CF230AF008330B0009A2CE830AF0034
:101930008330B0002F08A6003008A7000A168A11CD
:1019400047220A128A1514300A168A119F200A1299
:101950008A151C3083120313A6008330A7000A16D1
:101960008A1147220A128A1554300A168A119F20BA
:101970000A128A15723083120313A6008230A70060
:101980000A168A1147220A128A1506308312031397
:10199000AA001330A900AD30A800A80BCD2CA90BCC
:1019A000CD2CAA0BCD2C0A128A15F8200A128A1502
:1019B00083120313B20023303206031DE02CE12C06
:1019C000E52C2330D000CE01AC2D2A303206031D89
:1019D000EA2CEB2C632C0A168A1108210A128A15AC
:1019E00000300A168A119F200A128A15A630831227
:1019F0000313A6008130A7000A168A1147220A1293
:101A00008A1540300A168A119F200A128A158312FD
:101A10000313B3010A168A118B240A128A15FF00D8
:101A20008312031333082B3E84007F088313800046
:101A30002A300A168A11FC210A128A1501308312F3
:101A40000313B30704303302031C272D282D0A2D5E
:101A5000063083120313AA001330A900AD30A8008A
:101A6000A80B302DA90B302DAA0B302D013083127D
:101A70000313B100B3013308473E84008313000809
:101A8000A80033082B3E8400000828060319492DBE
:101A90004A2D4C2DB101542D0130B30704303302CF
:101AA000031C532D542D3B2D31080319582D592D4E
:101AB000952DE00187120717B830D2000A168A1157
:101AC00008210A128A1500300A168A119F200A126C
:101AD0008A15E93083120313A6008230A7000A1684
:101AE0008A1147220A128A1540300A168A119F204D
:101AF0000A128A153F3083120313A6008230A70012
:101B00000A168A1147220A128A15273083120313F4
:101B1000AA000D30A9002530A800A80B8D2DA90B17
:101B20008D2DAA0B8D2D942D632C0A168A11082158
:101B30000A128A1500300A168A119F200A128A1585
:101B4000D93083120313A6008130A7000A168A1128
:101B500047220A128A15852D080000300A168A11BC
:101B60009F200A128A15733083120313A600813056
:101B7000A7000A168A1147220A128A1540300A164F
:101B80008A119F200A128A15833083120313A6003C
:101B90008230A7000A168A1147220A128A151430C9
:101BA0000A168A119F200A128A15403083120313E5
:101BB000A6008130A7000A168A1147220A128A1548
:101BC00054300A168A119F200A128A152F30831268
:101BD0000313A6008130A7000A168A1147220A12B1
:101BE0008A150A168A118B240A128A158312031386
:101BF000B40023303406031DFE2DFF2D012ECE012F
:101C0000FF2F31303406031D062E072EAB2E0A1689
:101C10008A1108210A128A1500300A168A119F209B
:101C20000A128A15EA3083120313A6008130A70036
:101C30000A168A1147220A128A1540300A168A119A
:101C40009F200A128A15831203134D08031D292EA3
:101C50002A2E342E7D30A6008330A7000A168A1162
:101C600047220A128A154C2E4D03031D382E392E99
:101C7000432E6E30A6008330A7000A168A11472231
:101C80000A128A154C2E8C30A6008330A7000A1643
:101C90008A1147220A128A1514300A168A119F20C7
:101CA0000A128A15B63083120313A6008230A700E9
:101CB0000A168A1147220A128A150A168A118B24DB
:101CC0000A128A1583120313B4002A303406031D46
:101CD0006A2E6B2EA42E0130CD0703304D02031C5B
:101CE000722E732E742ECD0140300A168A119F2059
:101CF0000A128A15831203134D08031D802E812EAC
:101D00008B2E7D30A6008330A7000A168A11472249
:101D10000A128A155D2E4D03031D8F2E902E9A2ECA
:101D20006E30A6008330A7000A168A1147220A12D5
:101D30008A155D2E8C30A6008330A7000A168A1102
:101D400047220A128A155D2E23303406031DA92E60
:101D5000AA2E5D2EAD2D32303406031DB02EB12ECD
:101D6000A12F0A168A1108210A128A1500300A16B4
:101D70008A119F200A128A15513083120313A6007C
:101D80008130A7000A168A1147220A128A154030AC
:101D90000A168A119F200A128A1583120313B501AD
:101DA0000A168A118B240A128A15FF008312031364
:101DB00035082B3E84007F08831380002A300A16E2
:101DC0008A11FC210A128A15013083120313B50708
:101DD00004303502031CED2EEE2ED02E0130B30060
:101DE000B5013508473E840083130008A800350874
:101DF0002B3E8400000828060319FF2E002F022F17
:101E0000B3010A2F0130B50704303502031C092F36
:101E10000A2FF12E3308031D0E2F0F2F352F0A1610
:101E20008A1108210A128A1500300A168A119F2089
:101E30000A128A15953083120313A6008130A70079
:101E40000A168A1147220A128A15273083120313B1
:101E5000AA000D30A9002530A800A80B2D2FA90B32
:101E60002D2FAA0B2D2F342FAD2D0A168A110821E4
:101E70000A128A1500300A168A119F200A128A1542
:101E8000623083120313A6008130A7000A168A115C
:101E900047220A128A1540300A168A119F200A1218
:101EA0008A1583120313B5010A168A118B240A12AC
:101EB0008A15FF008312031335082F3E84007F0824
:101EC000831380002A300A168A11FC210A128A150F
:101ED0008312031335082F3E840083130008FF008C
:101EE0003508473E84007F0880003508473E84005F
:101EF0000008F30035080A168A1183210A128A1590
:101F0000013083120313B50704303502031C892FF7
:101F10008A2F542F0A168A1108210A128A150030B6
:101F20000A168A119F200A128A15FB3083120313A6
:101F3000A6008130A7000A168A1147220A128A15C4
:101F4000252F33303406031DA62FA72FAD2D0A16DB
:101F50008A1108210A128A1500300A168A119F2058
:101F60000A128A15C73083120313A6008230A70015
:101F70000A168A1147220A128A150A168A118B2418
:101F80000A128A1583120313B4002A303406031D83
:101F9000CA2FCB2FAD2D1C30E1001C30F3001430C4
:101FA0000A168A1183210A128A1583120313D40197
:101FB000CD01D301D1018713DA01D901D801D701AD
:101FC000D601D501D2010130E00087160713871032
:101FD0000A168A1108210A128A1500300A168A1177
:101FE0009F200A128A15C83083120313A60081307D
:101FF000A7000A168A1147220A128A15252F0800FF
:10211400831203138614061586150800C434093483
:1021240001341C341A340634093464008001840AEE
:102134000406031900340406982883120313A0002C
:10214400200880380A168A1104230A168A11080006
:10215400F3007308831203178D00831603178C137F
:102164000C14831203170C080800831603131108B8
:102174001F39031DBE28BF28B7281419C228C32835
:10218400B72808000A168A11B7200A168A1183167E
:10219400031391149118CF28D028CC2808000A16CC
:1021A4008A11B7200A168A11831603131114111801
:1021B400DC28DD28D92808000A168A11B7200A1657
:1021C4008A118316031311151119E928EA28E62840
:1021D40008008312031360080319F128F228F52874
:1021E40087160713F728871207170800F500F03041
:1021F4007505F4008312031308080F39740488006A
:102204000A128A11F1200A168A11080001300A16EE
:102214008A1104230A168A110D3083120313A100B4
:10222400FB30A000A00B1429A10B14290800F50011
:10223400F401751C1E291F2921297308F4070310B2
:10224400F30D0310F50C7508031D29292A291B29F0
:10225400740808007E088A007F0882000A168A1122
:102264002C210A168A118000840A04087D060319A9
:102274000034FF0A0319FE0A302983120313AC0049
:102284000A168A11B7200A168A11831203132C081E
:1022940093000A168A11B7200A168A1183160313AB
:1022A40011080800F8000F307805F6000A30F30032
:1022B4007808F70004300310F70CFF3E031D5D2976
:1022C40077080A168A1119210A168A117607080056
:1022D4008312031358080319702971297C29D80122
:1022E4005A080319762977297C290130DA028714E0
:1022F400FA30D9005908031D8029812982298710C1
:102304000800F400831603178C1889298A29842964
:102314007408831203178D0073088C008316031747
:102324008C130C158B1355308D00AA308D008C1432
:102334008B170C1108000A128A15F8200A168A1144
:10234400F6007608031DA729A829AD2983120313D3
:10235400D0010030B82976088312031350060319FC
:10236400B429B529AB297608D000760808000A16E6
:102374008A11B7200A168A11831603139115141CA7
:10238400C429C529C129831203131308F3000A16AB
:102394008A11B7200A168A11831603139112111693
:1023A400111AD529D629D22973080800F600073056
:1023B400F6057608F50003300310F50DFF3E031D06
:1023C400DE29831203131F08C73975049F002930BF
:1023D400F500F50BEB290000831203131F151F19D9
:1023E400F429F529F1291E08F400831603131E08A5
:1023F400F300080083120313A500081488102508AD
:10240400F0390A168A11F8200A168A118312031366
:102414002508A40003300310A40DFF3E031D0D2A5C
:102424000310240D0A168A11F8200A168A11523054
:1024340083120313A400A40B1D2A000008008312B6
:102444000313050CF300730C0139F4005408031949
:102454002C2A2D2A412A7908031D312A322A442A9A
:102464007403031D362A372A442A5508031D3B2AC0
:102474003C2A442A6430D5000130D300442AD301D5
:102484008713D1017408F90008005E2A2708FF00A9
:10249400260884000A128A1100210A168A110A16D3
:1024A4008A11FC210A168A11013083120313A6072C
:1024B4000318A70A0030A707831203132708FF0095
:1024C400260884000A128A1100210A168A11003A89
:1024D400031D6D2A6E2A482A0800831203134D082F
:1024E400031D752A762A922A00300A168A11D821E9
:1024F4000A168A11740883120313CC007308CB00E4
:1025040001304C022C3003194B02031C8A2A8E2AF8
:10251400831203130714912A8312031307109D2AAD
:102524004D030319962A9A2A8312031307149D2A2A
:1025340083120313071008000A168A11D1200A1601
:102544008A11D0300A168A113F210A168A110030E6
:102554000A168A113F210A168A110A168A11C42002
:102564000A168A11D1300A168A113F210A168A11D5
:102574000A128A11E1270A168A1183120313AD0085
:102584000A168A11DE200A168A1183120313AD1B60
:10259400CC2ACE2A0130CF2A00300800831203133C
:1025A400A8000A30F3000030F4002808A600A701B0
:1025B4002608F5002708F6000A168A11A5250A162A
:1025C4008A117308303E0A168A11FC210A168A11F0
:1025D4000A30F3000030F400831203132808A60025
:1025E400A7012608F5002708F6000A168A113424E4
:1025F4000A168A117308303E0A168A11FC210A163B
:102604008A110800F8008312031308108810780850
:10261400F0390A168A11F8200A168A117808F60089
:1026240003300310F60DFF3E031D132B0310760D2C
:102634000A168A11F8200A168A1178030319232B23
:10264400242B2A2B02307806031D292B2A2B342B0A
:102654000D30F700FB30F600F60B2E2BF70B2E2B6C
:10266400332B382B5330F600F60B362B080083122D
:102674000313AB000A30F3000030F4002B08A4006D
:10268400A5012408F5002508F6000A168A11342449
:102694000A168A11730883120313A6007408A7008C
:1026A4000A30F3000030F4002B08A800A901280820
:1026B400F5002908F6000A168A11A5250A168A11BA
:1026C400730883120313AA0003300310AA0DFF3EFC
:1026D400031D672B03102A0D2604080073087404D5
:1026E4000319752B762BA32B0130F700822B0130B5
:1026F4000310F30DF40DFF3E031D7A2B0130F70791
:10270400F41F852B862B792B74087602031D8C2BE2
:1027140073087502031C8F2B902B962B7308F502FC
:102724007408031CF603F60201300310F40CF30CD6
:10273400FF3E031D972B0130F702031DA22BA32B91
:10274400862B7608F4007508F3000800831203133F
:10275400A101A201730874040319B12BB22BE72B56
:102764000130A000BE2B01300310F30DF40DFF3E29
:10277400031DB62B0130A007F41FC12BC22BB52BB0
:1027840001300310A10DA20DFF3E031DC32B7408DD
:102794007602031DCF2B73087502031CD22BD32B97
:1027A400DA2B7308F5027408031CF603F6022114ED
:1027B40001300310F40CF30CFF3E031DDB2B01303E
:1027C400A002031DE62BE72BC22B2208F4002108EC
:1027D400F30008000030F7000030F6000030F50088
:1027E4000030F40083120313201CF92BFA2B112C54
:1027F4002408F407250803110318013E0319032CC8
:10280400F507260803110318013E03190A2CF607DD
:10281400270803110318013E0319112CF70701308F
:10282400F3000310A40DA50DA60DA70DF30B132C97
:1028340001300310A30CA20CA10CA00CFF3E031D3D
:102844001B2C2308220421042004031D2A2C2B2CD6
:10285400F42B7708A3007608A2007508A100740879
:10286400A0000800F801F61F382C392C402CF5097B
:10287400F609F50A0319F60A0130F800F41F432C8F
:10288400442C492CF309F409F30A0319F40A7308D4
:10289400740403194E2C4F2C7C2C0130F7005B2C54
:1028A40001300310F30DF40DFF3E031D532C0130D2
:1028B400F707F41F5E2C5F2C522C74087602031D5C
:1028C400652C73087502031C682C692C6F2C730823
:1028D400F5027408031CF603F60201300310F40C2D
:1028E400F30CFF3E031D702C0130F702031D7B2CFB
:1028F4007C2C5F2C78080319802C812C862CF509FC
:10290400F609F50A0319F60A7608F4007508F300C7
:102914000800952C2130F7007630F600F60B902C49
:10292400F70B902C00000A128A15F8200A168A1157
:10293400003A031D9E2C9F2C8C2C0A128A15F82019
:102944000A168A11F80078080319A92CAA2CDA2C83
:10295400C330F700CD30F600F60BAE2CF70BAE2CDF
:102964000A128A15F8200A168A117806031DBB2C50
:10297400BC2CDA2CC62C2130F7007630F600F60B8E
:10298400C12CF70BC12C00000A128A15F8200A1674
:102994008A11003A031DCF2CD02CBD2CC330F70074
:1029A400CD30F600F60BD42CF70BD42C7808E42C9D
:1029B4002130F7007630F600F60BDE2CF70BDE2C18
:1029C40000009F2C080001300A168A11D8210A162B
:1029D4008A11740883120313B8007308B700003017
:1029E400AB000030AA000330A900FF30A80037086C
:1029F400A0003808A100A201A3010030A700003004
:102A0400A600C330A5005030A4000A168A11EC2396
:102A14000A168A11831203132308AF002208AE009A
:102A24002108AD002008AC000A168A110A260A16ED
:102A34008A11831203132908DF002808DE006108C5
:102A4400B500B6016430F3000030F4005F08F6000E
:102A54005E08F5000A168A11A8230A168A11831241
:102A6400031336087402031D392D35087302031845
:102A74003C2D402D831203130715432D831203139A
:102A840007110800103083120313AA002730AB008B
:102A9400A8019E2D2B08F4002A08F3002708F6004D
:102AA4002608F5000A168A11A8230A168A11730843
:102AB40083120313A9002908031D612D622D6D2DB6
:102AC4002808031D662D672D6D2D2A032B04031D75
:102AD4006C2D6D2D782D2908303E0A168A11FC21A3
:102AE4000A168A11013083120313A8002B08F4007C
:102AF4002A08F3002708F6002608F5000A168A11AA
:102B040070230A168A11740883120313A70073082A
:102B1400A6000A30F3000030F4002B08F6002A085F
:102B2400F5000A168A11A8230A168A11740883125A
:102B34000313AB007308AA002A082B04031DA32D5A
:102B4400A42D4C2D080083120313A101F41FAB2DF7
:102B5400AC2DB32DF309F409F30A0319F40A013077
:102B6400A100F61FB62DB72DBE2DF509F609F50AFD
:102B74000319F60A0130A106A201A3017308740423
:102B84000319C52DC62DFB2D0130A000D22D013017
:102B94000310F30DF40DFF3E031DCA2D0130A007F1
:102BA400F41FD52DD62DC92D01300310A20DA30D70
:102BB400FF3E031DD72D74087602031DE32D730811
:102BC4007502031CE62DE72DEE2D7308F50274083B
:102BD400031CF603F602221401300310F40CF30C68
:102BE400FF3E031DEF2D0130A002031DFA2DFB2D26
:102BF400D62D21080319FF2D002E052EA209A309A5
:102C0400A20A0319A30A2308F4002208F300080007
:102C1400003083120313B3000030B2000030B1005F
:102C24000030B0002B082A042904280403191B2EA1
:102C34001C2E672E0130B4002A2E0130F800031038
:102C4400A80DA90DAA0DAB0DF80B212E0130B40768
:102C5400AB1F2D2E2E2E1F2E0130F8000310B00DA9
:102C6400B10DB20DB30DF80B302E2B082F02031D3E
:102C7400452E2A082E02031D452E29082D02031D68
:102C8400452E28082C02031C482E492E582E2808AD
:102C9400AC022908031C290FAD022A08031C2A0FC1
:102CA400AE022B08031C2B0FAF02301401300310AB
:102CB400AB0CAA0CA90CA80CFF3E031D592E013025
:102CC400B402031D662E672E2E2E3308AB00320885
:102CD400AA003108A9003008A800080083120313D1
:102CE400B2000A168A11D1200A168A11D0300A16A7
:102CF4008A113F210A168A1100300A168A113F21CF
:102D04000A168A11831203132E080A168A1139230C
:102D14000A168A117F390A168A113F210A168A1166
:102D2400831203132D080A168A1139230A168A11ED
:102D34000A168A113F210A168A11831203133208D4
:102D44000A168A1139230A168A110A168A113F2192
:102D54000A168A1101300A168A1139230A168A11B1
:102D64000A168A113F210A168A11831203132F08A7
:102D74000A168A1139230A168A110A168A113F2162
:102D84000A168A118312031330080A168A1139238A
:102D94000A168A110A168A113F210A168A11831209
:102DA400031331080A168A1139230A168A110A16DE
:102DB4008A113F210A168A110A168A11DE200A1680
:102DC4008A11080083120313A900A801AA01403044
:102DD4000A168A119F200A168A111E3083120313C1
:102DE400A6008130A7000A168A1147220A168A1102
:102DF40040300A168A119F200A168A110A168A116F
:102E04008B240A168A1183120313AC0030302C026F
:102E1400031C0D2F0E2F502F3A302C020318132FA2
:102E2400142F502F2808031D182F192F312F2C0869
:102E3400D03EAA000A30F3002A080A168A11192182
:102E44000A168A11831203132C080A168A11FC210C
:102E54000A168A11013083120313A800002F0A30C6
:102E6400F3002A080A168A1119210A168A118312F4
:102E740003132C07D03EAB002C080A168A11FC2140
:102E84000A168A11831203132B08290203184B2FE5
:102E94004C2F4E2F2908AB002B086F2F2A302C06FD
:102EA400031D552F562F002FA80140300A168A11F2
:102EB4009F200A168A111E3083120313A600813044
:102EC400A7000A168A1147220A168A1140300A16E8
:102ED4008A119F200A168A11002F08000B1D732FD8
:102EE400742FE02F64308312031381000B115908EF
:102EF40003197D2F7E2F802F0130D9025708031923
:102F0400842F852F872F0130D702560803198B2F62
:102F14008C2F8E2F0130D60255080319922F932F30
:102F2400952F0130D50252080319992F9A2FA52FF6
:102F34000130D2025208031DA02FA12FA52F01306A
:102F4400E0008716071309080139F2007A03031D0C
:102F5400AC2FAD2FBB2F7208031DB12FB22FBB2F87
:102F64005608031DB62FB72FBB2F3230D6000130C1
:102F7400D8007208FA0054080319C12FC22FDE2F9B
:102F840053080319C62FC72FDE2F0130D1077D3018
:102F94005102031CCE2FCF2FE02F0310871F0314E1
:102FA4000318D52FD92F831203138717DC2F83120D
:102FB40003138713D101E02F8713DC2F8B1CE32F1E
:102FC400E42FF92F831203135708031DEA2FEB2F65
:102FD400F82F03305A020318F02FF12FF82F323054
:102FE400D7000130DA078714FA30D9008B10710842
:0C2FF4008A00700E8300FE0E7E0E0900A5
:02400E007A3FF7
:00000001FF
