:060000000A128A11FA2F1A
:100E24008312031393018C1D182F192F152F8C1166
:100E34001308080070088312031393008316031326
:100E4400141C252F262F202F831203131308F200BE
:100E5400F3017208FC007308FD000800F800831217
:100E6400031306100230F0000030F1000A128A1158
:100E74001C270A128A117808F600F7017608F00098
:100E84007708F1000A128A111C270A128A117408C1
:100E9400F600F7017608F0007708F1000A128A11CB
:100EA4001C270A128A117508F600F7017608F0006B
:100EB4007708F1000A128A111C270A128A11831278
:100EC400031306140800F7008312031306100330FB
:100ED400F0000030F1000A128A111C270A128A114C
:100EE4007708F500F6017508F0007608F1000A129B
:100EF4008A111C270A128A117408F500F601750874
:100F0400F0007608F1000A128A111C270A128A11CD
:100F140083160313141C8F2F902F8A2F0A128A1101
:100F240012270A128A11F500F6017508FC007608EA
:100F3400FD0083120313061408008316031387119C
:100F440007168712061020308312031394008316A9
:100F5400031394018312031306100630F0000030CB
:100F6400F1000A128A111C270A128A118312031330
:100F740006144330F4000930F50003300A128A11D4
:100F840030270A128A111A30FB005E30FA006E30E4
:100F9400F900F90BCB2FFA0BCB2FFB0BCB2F000057
:100FA4008312031306100430F0000030F1000A121B
:100FB4008A111C270A128A118312031306141A3089
:100FC400FB005E30FA006E30F900F90BE72FFA0BE4
:100FD400E72FFB0BE72F00004330F40003300A1225
:100FE4008A1165270A128A11F62F0A128A1100281B
:0C0FF400FC01FD0183010A128A119F2FED
:00000001FF
