:060000000A128A11E82F2C
:100EEA002B343F3406345B344F3466346D347D34EE
:100EFA0007347F346F347E088A007F0882000A1222
:100F0A008A1180270A128A118000840A04087D0641
:100F1A0003190034FF0A0319FE0A842F83120313EC
:100F2A00AA002B3084002030F0000A30F10083132D
:100F3A000008F200040AF3007008840072088000B6
:100F4A00040AF00073088400F10B9C2F2A08203E43
:100F5A008400000808008316031386018701043001
:100F6A00F7000330F60083120313071487100330C7
:100F7A000A128A1193270A128A118312031386000E
:100F8A002130F5007630F400F40BC92FF50BC92F88
:100F9A000000831203130710871404300A128A11FF
:100FAA0093270A128A118312031386002130F5004F
:100FBA007630F400F40BDF2FF50BDF2F0000B42F8F
:100FCA000A128A11002883133530FD000730FE000B
:100FDA007630FF002B3084000A128A1184270A1205
:100FEA008A110A128A1175270A128A11F8008301D6
:060FFA000A128A11B02F5B
:02400E00FA3F77
:00000001FF
