:060000000A128A11FC2F18
:100E9600831603138601C0308312031386001A30AB
:100EA600F2005E30F1006E30F000F00B582FF10BBF
:100EB600582FF20B582F0000F930831203138600C7
:100EC6001A30F2005E30F1006E30F000F00B692F40
:100ED600F10B692FF20B692F0000A4308312031364
:100EE60086001A30F2005E30F1006E30F000F00B32
:100EF6007A2FF10B7A2FF20B7A2F0000B030831283
:100F0600031386001A30F2005E30F1006E30F000F6
:100F1600F00B8B2FF10B8B2FF20B8B2F00009930E0
:100F26008312031386001A30F2005E30F1006E3031
:100F3600F000F00B9C2FF10B9C2FF20B9C2F000066
:100F460092308312031386001A30F2005E30F100ED
:100F56006E30F000F00BAD2FF10BAD2FF20BAD2F75
:100F6600000082308312031386001A30F2005E30CE
:100F7600F1006E30F000F00BBE2FF10BBE2FF20B1E
:100F8600BE2F0000F8308312031386001A30F200D9
:100F96005E30F1006E30F000F00BCF2FF10BCF2F4B
:100FA600F20BCF2F000080308312031386001A3015
:100FB600F2005E30F1006E30F000F00BE02FF10B26
:100FC600E02FF20BE02F000090308312031386000F
:100FD6001A30F2005E30F1006E30F000F00BF12FA7
:100FE600F10BF12FF20BF12F00004E2F0A128A118E
:0A0FF600002883010A128A114B2F14
:02400E00FA3F77
:00000001FF
