:060000000A128A11FC2F18
:100E96008316031386013F308312031386001A302C
:100EA600F2005E30F1006E30F000F00B582FF10BBF
:100EB600582FF20B582F00000630831203138600BA
:100EC6001A30F2005E30F1006E30F000F00B692F40
:100ED600F10B692FF20B692F00005B3083120313AD
:100EE60086001A30F2005E30F1006E30F000F00B32
:100EF6007A2FF10B7A2FF20B7A2F00004F308312E4
:100F0600031386001A30F2005E30F1006E30F000F6
:100F1600F00B8B2FF10B8B2FF20B8B2F0000663013
:100F26008312031386001A30F2005E30F1006E3031
:100F3600F000F00B9C2FF10B9C2FF20B9C2F000066
:100F46006D308312031386001A30F2005E30F10012
:100F56006E30F000F00BAD2FF10BAD2FF20BAD2F75
:100F660000007D308312031386001A30F2005E30D3
:100F7600F1006E30F000F00BBE2FF10BBE2FF20B1E
:100F8600BE2F000007308312031386001A30F200CA
:100F96005E30F1006E30F000F00BCF2FF10BCF2F4B
:100FA600F20BCF2F00007F308312031386001A3016
:100FB600F2005E30F1006E30F000F00BE02FF10B26
:100FC600E02FF20BE02F00006F3083120313860030
:100FD6001A30F2005E30F1006E30F000F00BF12FA7
:100FE600F10BF12FF20BF12F00004E2F0A128A118E
:0A0FF600002883010A128A114B2F14
:02400E00FA3F77
:00000001FF
