:060000000A128A110E280D
:10000800FE00030EF4000408F5000A08F6000A12C0
:100018008A1136290A128A11112883134030FD00EB
:100028000130FE00A230FF00363084000A128A1127
:1000380093210A128A11F901FA0183010A128A111D
:10004800E32883120313B001AC1F2B282C28332874
:10005800AB09AC09AB0A0319AC0A0130B000AE1FFA
:10006800362837283E28AD09AE09AD0A0319AE0A6D
:100078000130B006B101B2012B082C040319452840
:1000880046287B280130AF00522801300310AB0D01
:10009800AC0DFF3E031D4A280130AF07AC1F5528A1
:1000A8005628492801300310B10DB20DFF3E031D3B
:1000B80057282C082E02031D63282B082D02031C29
:1000C800662867286E282B08AD022C08031CAE038F
:1000D800AE02311401300310AC0CAB0CFF3E031D13
:1000E8006F280130AF02031D7A287B285628300874
:1000F80003197F2880288528B109B209B10A031994
:10010800B20A3208AC003108AB00080083120313AE
:10011800B001AE1F902891289828AD09AE09AD0A04
:100128000319AE0A0130B000AC1F9B289C28A128F7
:10013800AB09AC09AB0A0319AC0A2B082C04031948
:10014800A628A728D4280130AF00B328013003100F
:10015800AB0DAC0DFF3E031DAB280130AF07AC1F44
:10016800B628B728AA282C082E02031DBD282B085C
:100178002D02031CC028C128C7282B08AD022C0853
:10018800031CAE03AE0201300310AC0CAB0CFF3EF7
:10019800031DC8280130AF02031DD328D428B7286F
:1001A80030080319D828D928DE28AD09AE09AD0AC8
:1001B8000319AE0A2E08AC002D08AB000800831600
:1001C8000313860187018B170B178B1607308100E5
:1001D8003B308312031381000A3083120313AB00F0
:1001E8000030AC007A08B300B4013308AD0034081D
:1001F800AE000A128A1125200A128A1183120313EB
:100208002B08F8000A30AB000030AC007A08B300C5
:10021800B4013308AD003408AE000A128A118A20EE
:100228000A128A11831203132B08F7000130FA0708
:1002380064307A06031D212922292329FA010D3069
:1002480083120313B500AF30B400B530B300B30B5D
:100258002B29B40B2B29B50B2B293229F0280A128C
:100268008A110E280B1D39293A2969290230790289
:10027800031C3F2940294129F9017908031D452913
:1002880046295429831203130714871077080A1282
:100298008A1172210A128A118312031386006629B1
:1002A8007903031D58295929662983120313071056
:1002B800871478080A128A1172210A128A11831285
:1002C800031386000130F9070B1176088A007508B8
:1002D8008400740E8300FE0E7E0E09008312031341
:1002E800AA00363084002030F0000A30F100831371
:1002F8000008F200040AF300700884007208800005
:10030800040AF00073088400F10B7B292A08203EB8
:100318008400000808007E088A007F0882000A120C
:100328008A118F210A128A118000840A04087D0626
:1003380003190034FF0A0319FE0A93293F340634CF
:100348005B344F3466346D347D3407347F346F3416
:02400E00FA3F77
:00000001FF
