:060000000A128A110E280D
:10000800FE00030EF2000A08F3007F08F4000A124B
:100018008A119B2E0A128A111128F501F601F7019F
:10002800F80183135530840069300A128A113A277F
:100038000A128A1183010A128A11642B831203138C
:100048003108BB008030BB053108B6003607C10057
:10005800B01F2F28302831284114410803193528AA
:1000680036284528410A031D3A283B2843280030F2
:10007800B1000030B0000030AF000030AE00B01763
:100088004D280030B1000030B0000030AF00003023
:10009800AE0035088039BB063508B6003607BC0007
:1000A800B41F5728582859283C143C0803195D28C0
:1000B8005E286D283C0A031D622863286B280030DF
:1000C800B5000030B4000030B3000030B200B417FF
:1000D80075280030B5000030B4000030B30000309F
:1000E800B2003C08031979287A287F284108031DA3
:1000F8007E287F2888280030B1000030B00000300A
:10010800AF000030AE00632B2E08A00034080A129E
:100118008A1172260A128A11831203132108C70052
:100128002008C6004608B600B701B801B901390869
:10013800C0003808BF003708BE003608BD004708B1
:10014800B600B701B801B9013908C5003808C400BC
:100158003708C3003608C2002F08A00033080A1267
:100168008A1172260A128A11831203132108C70002
:100178002008C6004608B600B701B801B90136081C
:10018800BD07370803110318013E0319CC28BE0721
:10019800380803110318013E0319D328BF0739088B
:1001A80003110318013E0319DA28C0074708B600EF
:1001B800B701B801B9013608C20737080311031897
:1001C800013E0319E828C307380803110318013E44
:1001D8000319EF28C407390803110318013E03194E
:1001E800F628C5073008A00032080A128A117226BC
:1001F8000A128A11831203132108C7002008C600B7
:100208004608B600B701B801B9013608BD07370876
:1002180003110318013E03191229BE0738080311F8
:100228000318013E03191929BF07390803110318D8
:10023800013E03192029C0074708B600B701B801D5
:10024800B9013608C207370803110318013E03191C
:100258002E29C307380803110318013E031935294D
:10026800C407390803110318013E03193C29C507BF
:100278000830B6000310BD0DBE0DBF0DC00DB60B86
:100288003E292F08A00032080A128A1172260A1283
:100298008A11831203132108C7002008C6004608E4
:1002A800B6004708B700B801B9013608BD073708D6
:1002B80003110318013E03196229BE073808031108
:1002C8000318013E03196929BF07390803110318E8
:1002D800013E03197029C0072E08A00033080A122E
:1002E8008A1172260A128A11831203132108C70081
:1002F8002008C6004608B6004708B700B801B9018B
:100308003608BD07370803110318013E03198D2964
:10031800BE07380803110318013E03199429BF07C3
:10032800390803110318013E03199B29C007083037
:10033800B6000310BD0DBE0DBF0DC00DB60B9D2937
:100348002E08A00032080A128A1172260A128A118F
:10035800831203132108C7002008C6004608B60008
:100368004708B700B801B9013608BD0737080311B7
:100378000318013E0319C129BE07380803110318E1
:10038800013E0319C829BF07390803110318013EA4
:100398000319CF29C0072F08A00034080A128A11B0
:1003A80072260A128A11831203132108C700200833
:1003B800C6004608B6004708B700B801B9013608B4
:1003C800C207370803110318013E0319EC29C307B4
:1003D800380803110318013E0319F329C407390823
:1003E80003110318013E0319FA29C5073008A000B4
:1003F80033080A128A1172260A128A118312031309
:100408002108C7002008C6004608B6004708B700FC
:10041800B801B9013608C207370803110318013EAD
:100428000319172AC307380803110318013E0319D3
:100438001E2AC407390803110318013E0319252A87
:10044800C5073008A00034080A128A1172260A1259
:100458008A11831203132108C7002008C600460822
:10046800B6004708B700B801B90108300310B60D47
:10047800B70DB80DB90DFF3E031D3A2A3608C2075D
:10048800370803110318013E03194B2AC30738081C
:1004980003110318013E0319522AC407390803112E
:1004A8000318013E0319592AC5073D08B6003E083E
:1004B800B7003F08B8004008B90018300310B90C5D
:1004C800B80CB70CB60CFF3E031D622A3608C207EB
:1004D800370803110318013E0319732AC3073808A4
:1004E80003110318013E03197A2AC40739080311B6
:1004F8000318013E0319812AC5070830B600031006
:10050800BD0DBE0DBF0DC00DB60B832A41083C07BB
:10051800B600B701B70D3608823EC6003708031883
:10052800013EFF3EC700B52A0130B6000310C20DD8
:10053800C30DC40DC50DB60B9A2AC01FA42AA52A3F
:10054800A62A42140130B6000310BD0DBE0DBF0D22
:10055800C00DB60BA82AFF30C6070318C70AFF301C
:10056800C707C41FB82AB92A982ABC01C01FBD2AC8
:10057800BE2ADA2AFF303D05B600FF303E05B70037
:10058800FF303F05B8007F304005B900390838040E
:10059800370436040319D12AD22AD52A0130BC00DF
:1005A800DA2A421CD82AD92ADA2AD22A3C0803197C
:1005B800DE2ADF2A102B0130C20700300318013071
:1005C800C307003003180130C40700300318013096
:1005D800C507451CF02AF12A102B4208B60043082B
:1005E800B7004408B8004508B9000130BA00390D11
:1005F800B90CB80CB70CB60CBA0BFB2A3908C500F5
:100608003808C4003708C3003608C2000130C607DE
:100618000318C70A0030C7074708803AFF00803030
:100628007F02031D192BFF304602031C1C2B1D2BB8
:10063800282B7F3083120313C5008030C40000309C
:10064800C3000030C200592B831203134708803AB5
:10065800FF0080307F02031D332B01304602031850
:10066800362B372B432B003083120313C500003081
:10067800C4000030C3000030C200BB01592B8312F4
:1006880003134608C100FF30C205FF30C3057F30A1
:10069800C4050030C505411C522B532B542BC417DD
:1006A8004108B6000310360CC5003B08C5044508D0
:1006B800B1004408B0004308AF004208AE0008008B
:1006C8008B170B17831603130C1788018701051462
:1006D80083120313880187010A128A11E0260A127D
:1006E8008A1180300A128A1110270A128A110130E1
:1006F80083120313A3000C30A4000A128A11C42623
:100708000A128A114130831203139F008E30831618
:1007180003139F00831203131F151F19942B952B86
:10072800912B1E08DE00831603131E088312031381
:10073800DD003B30B100A030B0002330AF002130E5
:10074800AE005D08A0005E08A100A201A301003070
:100758000A128A11C8240A128A1183120313230861
:10076800B5002208B4002108B3002008B2000A121C
:100778008A1122200A128A11831203133108DC001D
:100788003008DB002F08DA002E08D9004230B1000B
:10079800C830B0000030AF000030AE005C08B500D3
:1007A8005B08B4005A08B3005908B2000A128A114B
:1007B80022200A128A11831203133108D800300844
:1007C800D7002F08D6002E08D500C3300A128A1188
:1007D80010270A128A11831203135808B500570804
:1007E800B4005608B3005508B2004230B100C83012
:1007F800B0000030AF000030AE000A128A1122208B
:100808000A128A11831203133108CB003008CA0078
:100818002F08C9002E08C8000A128A117E250A125C
:100828008A11831203134908E0004808DF00643086
:10083800A0000030A1006008A3005F08A2000A120F
:100848008A11F4250A128A11831203132108F80069
:100858002008F7006430A0000030A1006008A30061
:100868005F08A2000A128A1138260A128A11831216
:1008780003132108F6002008F5000A30A000003014
:10088800A1007808A3007708A2000A128A11F425AB
:100898000A128A11831203132108E8002008E700CE
:1008A8000A30A0000030A1007808A3007708A20051
:1008B8000A128A1138260A128A1183120313210890
:1008C800E6002008E5000A30A0000030A100760804
:1008D800A3007508A2000A128A11F4250A128A11C7
:1008E800831203132108E4002008E3000A30A00063
:1008F8000030A1007608A3007508A2000A128A1128
:1009080038260A128A11831203132108E2002008EC
:10091800E1006708303E0A128A11F9260A128A1184
:10092800831203136508303E0A128A11F9260A1247
:100938008A112E300A128A11F9260A128A11831294
:1009480003136308303E0A128A11F9260A128A1123
:10095800831203136108303E0A128A11F9260A121B
:100968008A110D3083120313D400AF30D300B53091
:10097800D200D20BBD2CD30BBD2CD40BBD2CC42C58
:100988008E2B0A128A110E2883120313A800280836
:100998000319CF2CD02CE42CA31FD32CD42CE42C5B
:1009A8002009AA002109AB002209AC002309AD00E7
:1009B800AA0A0319AB0A0319AC0A0319AD0AEC2CED
:1009C8002308AD002208AC002108AB002008AA00CB
:1009D8002308220421042004031DF32CF42CFD2CED
:1009E8000030A3000030A2000030A1000030A000B9
:1009F8007D2D9630A9000B2D0130A9070130031079
:100A0800AD0CAC0CAB0CAA0CFF3E031D032DFE3045
:100A18002D05031D102D112D002D2B2D0130A9079B
:100A28000130AA07003003180130AB070030031863
:100A38000130AC07003003180130AD070130031056
:100A4800AD0CAC0CAB0CAA0CFF3E031D232DFF30E4
:100A58002D05031D302D312D122D3D2D0130A902FC
:100A68000130A4000310AA0DAB0DAC0DAD0DA40B05
:100A7800362DAC1B402D412D472D0230290203187D
:100A8800462D472D322D29184A2D4B2D532DFF3039
:100A9800AA05FF30AB057F30AC05FF30AD0503106C
:100AA800A90C2908A400A501A601A7011830031064
:100AB800A40DA50DA60DA70DFF3E031D5B2D240853
:100AC800AA042508AB042608AC042708AD042808A6
:100AD80003196F2D702D752DA31F732D742D752D72
:100AE800AD172D08A3002C08A2002B08A1002A0886
:100AF800A00008000310831203134A0D4B0DD10008
:100B08005108031D882D892D922D0030CB0000300F
:100B1800CA000030C9000030C800F32D4808CC00D6
:100B28004908CD004A08CE004B08CF001F300310FB
:100B3800CF0CCE0CCD0CCC0CFF3E031D9B2D4C08CE
:100B4800D000CA17FF30C805FF30C905FF30CA05F5
:100B58000030CB059630D102D11FB32DB42DCC2D4A
:100B68005108803A973E0318BA2DBB2DBC2D892D0C
:100B780001300310CB0CCA0CC90CC80CFF3E031D76
:100B8800BD2D0130D107031DCA2DCB2DBC2DE32D62
:100B980020305102031CD12DD22DDE2D892D01309C
:100BA800CC000310C80DC90DCA0DCB0DCC0BD52D2B
:100BB8000130D1025108031DE22DE32DD32D500839
:100BC8000319E72DE82DF32DC809C909CA09CB096E
:100BD800C80A0319C90A0319CA0A0319CB0A080063
:100BE80083120313A501A601200821040319FD2D72
:100BF800FE2D332E0130A4000A2E01300310A00D63
:100C0800A10DFF3E031D022E0130A407A11F0D2ECA
:100C18000E2E012E01300310A50DA60DFF3E031D5B
:100C28000F2E21082302031D1B2E20082202031C5D
:100C38001E2E1F2E262E2008A2022108031CA30305
:100C4800A302251401300310A10CA00CFF3E031DC4
:100C5800272E0130A402031D322E332E0E2E260815
:100C6800A1002508A000080083120313200821040E
:100C780003193F2E402E6D2E0130A4004C2E01305A
:100C88000310A00DA10DFF3E031D442E0130A40743
:100C9800A11F4F2E502E432E21082302031D562E2E
:100CA80020082202031C592E5A2E602E2008A20268
:100CB8002108031CA303A30201300310A10CA00CFC
:100CC800FF3E031D612E0130A402031D6C2E6D2E04
:100CD800502E2308A1002208A00008008312031345
:100CE800A800A401A5012008A200A3012208A600CB
:100CF8002308A700281C812E822E882E2608A407E8
:100D08000318A50A2708A50701300310A60DA70D8B
:100D1800FF3E031D892E0310A80C2808031D952EDD
:100D2800962E7E2E2508A1002408A0000800831214
:100D380003130C1FA02EA12EBB2E1E08F000F101DC
:100D48007008F100F0017008DD007108DE008316FC
:100D580003131E08831203135D07F0005E080318CF
:100D68005E0AF1007008DD007108DE000C137408DB
:100D7800FF0073088A00720E8300FE0E7E0E0900C3
:100D880083120313A501D92E2508230784000A120C
:100D98008A1127270A128A110A128A11F9260A12B9
:100DA8008A11013083120313A50724082502031CA6
:100DB800DE2EDF2EC82E080038300A128A111027BE
:100DC8000A128A1106300A128A1110270A128A1189
:100DD8000C300A128A1110270A128A1101300A12DD
:100DE8008A1110270A128A11080083120313A2001D
:100DF800220887000814881008152130831203136D
:100E0800A1007530A000A00B072FA10B072F0C2FF6
:100E1800831203130811080083120313A200220887
:100E28008700081088100815213083120313A100C9
:100E38007530A000A00B1E2FA10B1E2F232F83128D
:100E480003130811080007308A000408840A82077F
:100E58000034543445344D345034203453344534FC
:100E68004E3453344F3452343A34003464008001E1
:0C0E7800840A04060319003404063B2F12
:02400E00FA3F77
:00000001FF
