:060000000A128A110C280F
:10000800FE00030EF0000A08F1000A128A113828CF
:100018000A128A110F28F20183010A128A11142880
:100028008B170B178B160730831603138100860175
:100038007208031D2028212824288312031306147C
:1000480064307206031D29282A282D2883120313D9
:100058000610C8307206031D322833281C28F20106
:100068001C280A128A110C280B1D3B283C284328FF
:100078003B308312031381000130F2070B11710822
:0C0088008A00700E8300FE0E7E0E090040
:02400E00FA3F77
:00000001FF
