:100000000A128A11FC2F00308A000408840A820731
:10001000003445344D34423445344434443445345A
:1000200044340034533459345334543445344D3407
:040030005334003411
:100E4C00F501372F7508730784000A128A110320E5
:100E5C000A128A110A128A11CB270A128A1101303E
:100E6C00F50774087502031C3C2F3D2F282F080032
:100E7C0083160313870188010A128A119A270A1212
:100E8C008A1183300A128A1169270A128A110130D9
:100E9C00F3000830F4000A128A1126270A128A116C
:100EAC00C3300A128A1169270A128A110A30F30018
:100EBC000730F4000A128A1126270A128A11472FCA
:100ECC000A128A110028F2007208F03983120313F7
:100EDC0087000810881008152130F1007630F000DA
:100EEC00F00B762FF10B762F0000831203130811F1
:100EFC007208F00003300310F00DFF3E031D812F2C
:100F0C000310700DF0398700081088100815213077
:100F1C00F1007630F000F00B912FF10B912F0000C7
:100F2C0083120313081108008230F400DD30F30043
:100F3C00F30B9E2FF40B9E2FA32F02300A128A1153
:100F4C0069270A128A1128300A128A1169270A1293
:100F5C008A110C300A128A1169270A128A1106307A
:100F6C000A128A1169270A128A1101300A128A118F
:100F7C0069270A128A110D30F400FB30F300F30BD1
:100F8C00C52FF40BC52FCA2F0800F2007208F039D8
:100F9C008312031387000814881008152130F10000
:100FAC007630F000F00BD82FF10BD82F0000831205
:100FBC00031308117208F00003300310F00DFF3E0C
:100FCC00031DE32F0310700DF039870008148810EF
:100FDC0008152130F1007630F000F00BF32FF10BF7
:100FEC00F32F0000831203130811080083010A1267
:040FFC008A113E2FE9
:02400E00FA3F77
:00000001FF
