:100000000A128A11FC2F00308A000408840A820731
:10001000003445344D34423445344434443445345A
:1000200044340034533459345334543445344D3407
:040030005334003411
:100EEC00F20072088312031387000810881008158B
:100EFC002130F1007630F000F00B822FF10B822FB5
:100F0C0000008312031308110800F2007208831208
:100F1C00031387000814881008152130F10076306F
:100F2C00F000F00B972FF10B972F00008312031397
:100F3C0008110800F501B12F7508730784000A1217
:100F4C008A1103200A128A110A128A118B270A129B
:100F5C008A110130F50774087502031CB62FB72FE0
:100F6C00A22F080038300A128A1176270A128A1129
:100F7C0006300A128A1176270A128A110C300A12CC
:100F8C008A1176270A128A1101300A128A117627E1
:100F9C000A128A11080083160313870188010A12AA
:100FAC008A11B8270A128A1183300A128A117627FD
:100FBC000A128A110130F3000830F4000A128A1167
:100FCC00A0270A128A11C3300A128A1176270A1234
:100FDC008A110A30F3000730F4000A128A11A02794
:100FEC000A128A11DA2F0A128A11002883010A12B6
:040FFC008A11D12F56
:02400E00FA3F77
:00000001FF
